S01700004578747275646572436F6E74726F6C2E73726563D9
S11300000C942A000C9447000C9447000C9447006D
S11300100C9447000C9447000C9447000C94470040
S11300200C9447000C9447000C9447000C94470030
S11300300C9447000C9447000C9447000C94470020
S11300400C9447000C9447000C9447000C94470010
S11300500C94470011241FBECFE5D4E0DEBFCDBF12
S113006010E0A0E6B0E0ECE4F7E002C005900D92E9
S1130070AA38B107D9F720E0AAE8B0E001C01D9280
S1130080AC38B207E1F70E9494020C94A4030C94D8
S11300900000672B09F09FC0009711F4D8980895C9
S11300A08130910511F4D99808958230910511F4A5
S11300B0DA9808958330910511F4DB98089584301B
S11300C0910511F4DC9808958530910511F4DD98BB
S11300D008958630910511F4DE98089587309105CE
S11300E011F4DF9808958A30910511F4C0980895A9
S11300F08B30910511F4C19808958C30910511F459
S1130100C29808958D30910511F4C39808958E30E6
S1130110910511F4C49808958F30910511F4C59890
S113012008958031910511F4C6980895813191059F
S113013011F4C79808958431910511F4A89808958D
S11301408531910511F4A99808958631910511F42A
S1130150AA9808958731910511F4AB9808958831D0
S1130160910511F4AC9808958931910511F4AD9875
S113017008958A31910511F4AE9808958B31910553
S113018011F4AF9808958E31910511F49098089563
S11301908F31910511F4919808958032910511F4ED
S11301A0929808958132910511F4939808958232BA
S11301B0910511F4949808958332910511F495985A
S11301C008958432910511F496980895859709F05D
S11301D09FC097980895009711F4D89A0895813094
S11301E0910511F4D99A08958230910511F4DA9A9F
S11301F008958330910511F4DB9A089584309105B4
S113020011F4DC9A08958530910511F4DD9A08956E
S11302108630910511F4DE9A08958730910511F422
S1130220DF9A08958A30910511F4C09A08958B30AD
S1130230910511F4C19A08958C30910511F4C29A74
S113024008958D30910511F4C39A08958E30910567
S113025011F4C49A08958F30910511F4C59A089544
S11302608031910511F4C69A08958131910511F4F4
S1130270C79A08958431910511F4A89A0895853197
S1130280910511F4A99A08958631910511F4AA9A59
S113029008958731910511F4AB9A08958831910539
S11302A011F4AC9A08958931910511F4AD9A089529
S11302B08A31910511F4AE9A08958B31910511F4A8
S11302C0AF9A08958E31910511F4909A08958F3163
S11302D0910511F4919A08958032910511F4929A3E
S11302E008958132910511F4939A0895823291050B
S11302F011F4949A08958332910511F4959A08950E
S11303008432910511F4969A0895859709F4979A81
S11303100895CF93C82F80FF07C061E070E08AE0A2
S113032090E00E94490006C060E070E08AE090E03E
S11303300E944900C1FF07C061E070E08BE090E0DB
S11303400E94490006C060E070E08BE090E00E94EB
S11303504900C2FF07C061E070E08CE090E00E94B9
S1130360490006C060E070E08CE090E00E94490023
S1130370C3FF07C061E070E08DE090E00E94490097
S113038006C060E070E08DE090E00E944900CF91EB
S11303900895CF93C82F60E070E08EE090E00E9453
S11303A049008C2F0E94890161E070E08FE090E0A9
S11303B00E9449008FE99FE00197F1F700C0000017
S11303C060E070E08FE090E00E9449008FE99FE0D8
S11303D00197F1F700C00000CF910895CF93C62F85
S11303E0813059F480E8860F82958F700E94C9018C
S11303F08C2F8F700E94C9010CC0823051F480ECA4
S1130400860F82958F700E94C9018C2F8F700E9475
S1130410C901CF91089580E00E9489012FEF89EFEF
S113042090E0215080409040E1F700C0000083E05C
S11304300E94C9018FE19EE40197F1F700C000001A
S113044083E00E94C9018FED9BEA0197F1F700C098
S1130450000083E00E94C90182E00E94C90182E099
S11304600E94C90188E00E94C90180E00E94C9017C
S11304708CE00E94C90180E00E94C90186E00E94CC
S1130480C9010895CF93C82F61E070E08EE090E039
S11304900E9449008C2F82958F700E94890161E02F
S11304A070E08FE090E00E9449008FE99FE001979F
S11304B0F1F700C0000060E070E08FE090E00E947F
S11304C049008FE99FE00197F1F700C000008C2FED
S11304D08F700E94890161E070E08FE090E00E94DB
S11304E049008FE99FE00197F1F700C0000060E048
S11304F070E08FE090E00E9449008FE99FE001974F
S1130500F1F700C00000CF910895CF93DF93EC0181
S11305108881882331F021960E94420289918111B9
S1130520FBCFDF91CF9108958FEF84BB87BB68EE3B
S113053073E080E190E00E940D030E940B0261E0F1
S113054081E00E94EE0180E690E00E94850262E371
S113055070E081E090E00E944D03F1CF60E070E034
S113056084E190E00E94490060E070E085E190E061
S11305700E94490060E070E086E190E00E9449003A
S1130580089561E070E084E190E00E94490060E039
S113059070E085E190E00E94490060E070E086E14F
S11305A090E00E944900089560E070E084E190E0EA
S11305B00E94490061E070E085E190E00E944900FA
S11305C060E070E086E190E00E944900089561E0F7
S11305D070E084E190E00E94490061E070E085E110
S11305E090E00E94490060E070E086E190E00E94A3
S11305F04900089561E070E084E190E00E944900C0
S113060061E070E085E190E00E94490061E070E003
S113061086E190E00E9449000895CF93C62F86306A
S1130620910599F034F48130910549F0029751F025
S113063014C08830910561F0409769F00EC00E94A3
S1130640AE020BC00E94C10208C00E94D40205C0C1
S11306500E94E70202C00E94FA026C2F70E07093BD
S11306608B0060938A00CF9108956CE370E00E9440
S11306707C0381E090E00E947C0328EE33E0629FDB
S1130680C001639F900D729F900D112418161906D6
S11306901CF400000197E9F70895CF93C62F88232F
S11306A039F061E070E088E190E00E94490006C002
S11306B060E070E088E190E00E944900CC23D1F032
S11306C061E070E087E190E00E94490080918A0037
S11306D090918B000E94350360E070E087E190E028
S11306E00E94490080918A0090918B000E943503FA
S11306F0C15031F7CF91089597FB072E16F400945B
S113070007D077FD09D00E94900307FC05D03EF482
S1130710909581959F4F0895709561957F4F0895A9
S1130720AA1BBB1B51E107C0AA1FBB1FA617B70713
S113073010F0A61BB70B881F991F5A95A9F780952F
S10F07409095BC01CD010895F894FFCF02
S113074C74686520737465707065722069732072A7
S113075C6F7461746520776974682073706565645F
S10D076C20313030302072706D002F
S9030000FC
