S01700004578747275646572436F6E74726F6C2E73726563D9
S11300000C942A000C943C000C943C000C943C008E
S11300100C943C000C943C000C943C000C943C006C
S11300200C943C000C943C000C943C000C943C005C
S11300300C943C000C943C000C943C000C943C004C
S11300400C943C000C943C000C943C000C943C003C
S11300500C943C0011241FBECFE5D4E0DEBFCDBF1D
S113006020E0A0E6B0E001C01D92A136B207E1F79E
S11300700E9491000C94A0000C94000041110DC04A
S1130080E82FF0E0228181E090E002C0880F991F00
S11300906A95E2F7822B82830895E82FF0E02281AB
S11300A081E090E002C0880F991F6A95E2F780957D
S11300B0822382830895FC018081089541E062E0F7
S11300C083E30E943E00000040E062E083E30E947C
S11300D03E0000000895CF93C82F41E060E083E321
S11300E00E943E0040E061E083E30E943E0082E320
S11300F090E00E945B008F709C2F907F892B8093EF
S113010060000E945E0020E1C29FC0011124909112
S113011060009F70892B809360000E945E00CF91E5
S113012008950E945E008EE60E946B002FEF89E620
S113013098E1215080409040E1F700C00000FFCFDB
S1070140F894FFCF5D
S9030000FC
