:100000000C94AB000C94D1030C94E0030C94C80046
:100010000C94C8000C94C8000C94C8000C94C80040
:100020000C94C8000C94C8000C94C8000C94C80030
:100030000C94C8000C94C8000C94C8000C94C80020
:100040000C94C8000C94C8000C94C8000C94C80010
:100050000C94C8006E616E00696E660000407A10F4
:10006000F35A00A0724E18090010A5D4E80000E869
:100070007648170000E40B54020000CA9A3B0000C7
:1000800000E1F505000080969800000040420F0056
:100090000000A08601000000102700000000E80317
:1000A000000000006400000000000A0000000000E2
:1000B0000100000000002C76D888DC674F0823DFA1
:1000C000C1DFAE59E1B1B796E5E3E453C63AE65174
:1000D000997696E8E6C28426EB898C9B62ED407C9B
:1000E0006FFCEFBC9C9F40F2BAA56FA5F490055A37
:1000F0002AF75C936B6CF9676DC11BFCE0E40D475C
:10010000FEF520E6B500D0ED902E0300943577057E
:100110000080841E080000204E0A000000C80C3336
:100120003333330F986E12831141EF8D2114893BC5
:10013000E65516CFFEE6DB18D1844B381BF77C1D45
:10014000901DA4BBE424203284725E228100C9F198
:1001500024ECA1E53D2711241FBECFE5D4E0DEBF8E
:10016000CDBF10E0A0E6B0E0ECE8F9E102C00590F8
:100170000D92AE37B107D9F720E0AEE7B0E001C08D
:100180001D92AB3EB207E1F70E9451030C94C40CE0
:100190000C940000672B09F09FC0009711F4D898C9
:1001A00008958130910511F4D99808958230910510
:1001B00011F4DA9808958330910511F4DB980895CD
:1001C0008430910511F4DC9808958530910511F47F
:1001D000DD9808958630910511F4DE9808958730F2
:1001E000910511F4DF9808958A30910511F4C098B3
:1001F00008958B30910511F4C19808958C309105C4
:1002000011F4C29808958D30910511F4C3980895A2
:100210008E30910511F4C49808958F30910511F432
:10022000C59808958031910511F4C69808958131DB
:10023000910511F4C79808958431910511F4A89897
:1002400008958531910511F4A99808958631910595
:1002500011F4AA9808958731910511F4AB98089587
:100260008831910511F4AC9808958931910511F404
:10027000AD9808958A31910511F4AE9808958B31A7
:10028000910511F4AF9808958E31910511F490986D
:1002900008958F31910511F4919808958032910558
:1002A00011F4929808958132910511F4939808956C
:1002B0008232910511F4949808958332910511F4D6
:1002C000959808958432910511F49698089585972C
:1002D00009F09FC097980895009711F4D89A08954F
:1002E0008130910511F4D99A08958230910511F465
:1002F000DA9A08958330910511F4DB9A08958430D9
:10030000910511F4DC9A08958530910511F4DD9A78
:1003100008958630910511F4DE9A0895873091058D
:1003200011F4DF9A08958A30910511F4C09A089566
:100330008B30910511F4C19A08958C30910511F418
:10034000C29A08958D30910511F4C39A08958E30A4
:10035000910511F4C49A08958F30910511F4C59A4E
:1003600008958031910511F4C69A0895813191055F
:1003700011F4C79A08958431910511F4A89A08954B
:100380008531910511F4A99A08958631910511F4EA
:10039000AA9A08958731910511F4AB9A089588318E
:1003A000910511F4AC9A08958931910511F4AD9A33
:1003B00008958A31910511F4AE9A08958B31910513
:1003C00011F4AF9A08958E31910511F4909A089521
:1003D0008F31910511F4919A08958032910511F4AD
:1003E000929A08958132910511F4939A0895823278
:1003F000910511F4949A08958332910511F4959A18
:1004000008958432910511F4969A0895859709F418
:10041000979A0895CF93C82F80FF07C061E070E0DE
:100420008AE090E00E94CA0006C060E070E08AE0C6
:1004300090E00E94CA00C1FF07C061E070E08BE05D
:1004400090E00E94CA0006C060E070E08BE090E09F
:100450000E94CA00C2FF07C061E070E08CE090E03B
:100460000E94CA0006C060E070E08CE090E00E944C
:10047000CA00C3FF07C061E070E08DE090E00E9419
:10048000CA0006C060E070E08DE090E00E94CA0003
:10049000CF910895CF93C82F60E070E08EE090E098
:1004A0000E94CA008C2F0E940A0261E070E08FE077
:1004B00090E00E94CA008FE99FE00197F1F700C029
:1004C000000060E070E08FE090E00E94CA008FE9D9
:1004D0009FE00197F1F700C00000CF91089580E000
:1004E0000E944A0281E00E944A020895CF93C62FDB
:1004F000813059F480E8860F82958F700E944A02FD
:100500008C2F8F700E944A020CC0823051F480EC14
:10051000860F82958F700E944A028C2F8F700E94E6
:100520004A02CF91089580E00E940A022FEF89EFDE
:1005300090E0215080409040E1F700C0000083E04F
:100540000E944A028FE19EE40197F1F700C000008B
:1005500083E00E944A028FED9BEA0197F1F700C009
:10056000000083E00E944A0282E00E944A0282E088
:100570000E944A0288E00E944A0280E00E944A02E9
:100580008CE00E944A0280E00E944A0286E00E94BB
:100590004A020895CF93C82F61E070E08EE090E0AA
:1005A0000E94CA008C2F82958F700E940A0261E01F
:1005B00070E08FE090E00E94CA008FE99FE0019711
:1005C000F1F700C0000060E070E08FE090E00E9472
:1005D000CA008FE99FE00197F1F700C000008C2F5F
:1005E0008F700E940A0261E070E08FE090E00E944C
:1005F000CA008FE99FE00197F1F700C0000060E0BA
:1006000070E08FE090E00E94CA008FE99FE00197C0
:10061000F1F700C00000CF910895CF93DF93EC0174
:100620008881882331F021960E94CA028991811124
:10063000FBCFDF91CF910895813011F0389801C040
:10064000389A369A3699FECF64B175B180E090E061
:100650000E94350623E23BED49EF5EE30E949B06D4
:100660000E94FF057093EA006093E9008091E90021
:100670009091EA00089586B1876886B93E9A85B759
:10068000866085BF8BB7806C8BBF789487B38F6390
:1006900087BB8AB38ABB84B38F6184BB0E949302F9
:1006A00008950E943B038091E800882309F44BC021
:1006B00080E00E941C034B970CF445C081E00E942F
:1006C0001C0384B195B12091E6003091E700281712
:1006D000390751F184B195B19093E7008093E6001A
:1006E0000E946F024AE062E870E08091E60090911B
:1006F000E7000E94F90B61E081E00E94760280E64B
:1007000090E00E940D0361E082E00E94760282E8A0
:1007100090E00E940D032FEF81EE94E02150804085
:100720009040E1F700C000006091E6007091E700A2
:1007300080E190E00E948B0561E070E081E090E054
:100740000E94D005B0CF80E00E941C032091800061
:10075000309181008217930709F4A5CF80E00E94B1
:100760001C0390938100809380000E946F024AE0F6
:1007700062E870E080918000909181000E94F90B06
:1007800061E081E00E9476028DE690E00E940D0318
:1007900061E082E00E94760282E890E00E940D0310
:1007A00082CF1F920F920FB60F9211248F9381E088
:1007B0008093E8008F910F900FBE0F901F901895B7
:1007C0001F920F920FB60F9211241092E8000F9013
:1007D0000FBE0F901F901895672B09F09FC00097D0
:1007E00011F4D89808958130910511F4D99808959D
:1007F0008230910511F4DA9808958330910511F44F
:10080000DB9808958430910511F4DC9808958530C3
:10081000910511F4DD9808958630910511F4DE9864
:1008200008958730910511F4DF9808958A30910575
:1008300011F4C09808958B30910511F4C198089572
:100840008C30910511F4C29808958D30910511F402
:10085000C39808958E30910511F4C49808958F308F
:10086000910511F4C59808958031910511F4C69849
:1008700008958131910511F4C79808958431910547
:1008800011F4A89808958531910511F4A998089557
:100890008631910511F4AA9808958731910511F4D4
:1008A000AB9808958831910511F4AC980895893179
:1008B000910511F4AD9808958A31910511F4AE981F
:1008C00008958B31910511F4AF9808958E319105FB
:1008D00011F4909808958F31910511F4919808952D
:1008E0008032910511F4929808958132910511F4A6
:1008F000939808958232910511F494980895833263
:10090000910511F4959808958432910511F4969803
:100910000895859709F09FC097980895009711F45E
:10092000D89A08958130910511F4D99A08958230AA
:10093000910511F4DA9A08958330910511F4DB9A48
:1009400008958430910511F4DC9A0895853091055D
:1009500011F4DD9A08958630910511F4DE9A089518
:100960008730910511F4DF9A08958A30910511F4CA
:10097000C09A08958B30910511F4C19A08958C3076
:10098000910511F4C29A08958D30910511F4C39A1E
:1009900008958E30910511F4C49A08958F30910511
:1009A00011F4C59A08958031910511F4C69A0895FD
:1009B0008131910511F4C79A08958431910511F49C
:1009C000A89A08958531910511F4A99A0895863160
:1009D000910511F4AA9A08958731910511F4AB9A03
:1009E00008958831910511F4AC9A089589319105E3
:1009F00011F4AD9A08958A31910511F4AE9A0895D3
:100A00008B31910511F4AF9A08958E31910511F44F
:100A1000909A08958F31910511F4919A089580323A
:100A2000910511F4929A08958132910511F4939AE7
:100A300008958232910511F4949A089583329105B4
:100A400011F4959A08958432910511F4969A0895B7
:100A5000859709F4979A089560E070E084E190E04A
:100A60000E94EC0360E070E085E190E00E94EC03FE
:100A700060E070E086E190E00E94EC03089561E0A0
:100A800070E084E190E00E94EC0360E070E085E1BA
:100A900090E00E94EC0360E070E086E190E00E944C
:100AA000EC03089560E070E084E190E00E94EC03C4
:100AB00061E070E085E190E00E94EC0360E070E0AE
:100AC00086E190E00E94EC03089561E070E084E12B
:100AD00090E00E94EC0361E070E085E190E00E940C
:100AE000EC0360E070E086E190E00E94EC03089582
:100AF00061E070E084E190E00E94EC0361E070E06E
:100B000085E190E00E94EC0361E070E086E190E016
:100B10000E94EC030895CF93DF93EB01863091059B
:100B200099F034F48130910549F0029751F014C0E6
:100B30008830910561F0409769F00EC00E942C0545
:100B40000BC00E943F0508C00E94520505C00E94CC
:100B5000650502C00E947805D0937F00C0937E0097
:100B6000DF91CF9108956CE370E00E94AC0A81E0C0
:100B700090E00E94AC0A28EE33E0629FC001639FC0
:100B8000900D729F900D11241816190644F4E9EF88
:100B9000F0E03197F1F700C000000197C1F7089528
:100BA000CF93C62F882339F061E070E088E190E0B0
:100BB0000E94EC0306C060E070E088E190E00E94D3
:100BC000EC03CC23D1F061E070E087E190E00E947B
:100BD000EC0380917E0090917F000E94B30560E05D
:100BE00070E087E190E00E94EC0380917E0090919C
:100BF0007F000E94B305C15031F7CF9108950E9444
:100C000006066894B1110C94950608950E947A0620
:100C100088F09F5798F0B92F9927B751B0F0E1F0BD
:100C2000660F771F881F991F1AF0BA95C9F714C06D
:100C3000B13091F00E949406B1E008950C949406AE
:100C4000672F782F8827B85F39F0B93FCCF38695A6
:100C500077956795B395D9F73EF490958095709503
:100C600061957F4F8F4F9F4F0895E89409C097FB80
:100C70003EF490958095709561957F4F8F4F9F4F73
:100C80009923A9F0F92F96E9BB279395F6958795B7
:100C900077956795B795F111F8CFFAF4BB0F11F47A
:100CA00060FF1BC06F5F7F4F8F4F9F4F16C0882321
:100CB00011F096E911C0772321F09EE8872F762F57
:100CC00005C0662371F096E8862F70E060E02AF098
:100CD0009A95660F771F881FDAF7880F9695879584
:100CE00097F9089557FD9058440F551F59F05F3FED
:100CF00071F04795880F97FB991F61F09F3F79F03E
:100D000087950895121613061406551FF2CF4695BF
:100D1000F1DF08C0161617061806991FF1CF869541
:100D20007105610508940895E894BB276627772725
:100D3000CB0197F908950E94AE060C941F070E94FC
:100D4000110738F00E94180720F0952311F00C9439
:100D500008070C940E0711240C9495060E94720645
:100D600070F3959FC1F3950F50E0551F629FF001FE
:100D7000729FBB27F00DB11D639FAA27F00DB11D17
:100D8000AA1F649F6627B00DA11D661F829F2227A0
:100D9000B00DA11D621F739FB00DA11D621F839F27
:100DA000A00D611D221F749F3327A00D611D231FFD
:100DB000849F600D211D822F762F6A2F11249F574B
:100DC00050409AF0F1F088234AF0EE0FFF1FBB1F4E
:100DD000661F771F881F91505040A9F79E3F51050D
:100DE00080F00C9408070C9495065F3FE4F3983E5E
:100DF000D4F3869577956795B795F795E7959F5FB7
:100E0000C1F7FE2B880F911D9695879597F9089548
:100E100097F99F6780E870E060E008959FEF80ECAD
:100E2000089500240A941616170618060906089550
:100E300000240A9412161306140605060895092EB6
:100E40000394000C11F4882352F0BB0F40F4BF2B25
:100E500011F460FF04C06F5F7F4F8F4F9F4F089565
:100E6000A3E1B0E0E6E3F7E00C94C00A6C014B01AB
:100E70002A01FC0117821682838181FF43C3AE01E0
:100E80004F5F5F4F3A01F6019381F40193FD859125
:100E900093FF81914F01882309F430C3853239F4DF
:100EA00093FD859193FF81914F01853239F4B6010D
:100EB00090E00E941E0C52012501E5CF10E0F12CBC
:100EC00020E02032A0F48B3269F030F4803259F007
:100ED000833269F420612CC08D3239F0803339F4CB
:100EE000216026C02260246023C0286021C027FD25
:100EF00027C030ED380F3A3078F426FF06C0FAE00C
:100F00001F9F300D1124132F13C04AE0F49E300DA3
:100F10001124F32E20620CC08E3221F426FDEEC285
:100F2000206406C08C3611F4206802C0883641F473
:100F3000F40193FD859193FF81914F018111C1CF00
:100F40009BEB980F933018F42061805E06C09BE9FC
:100F5000980F933008F071C12F7E26FF16E02F7393
:100F6000322E853619F42064322E08C0863621F4DC
:100F7000F22FF0683F2E02C01111115037FE07C04A
:100F80001C3350F4EE24E394E10E27E00BC018303C
:100F900038F027E017E005C027E04CE3E42E02C05C
:100FA000212FE12C520144E0A40EB11CF20160811A
:100FB0007181828193810E2DA3010E940B0B2C0164
:100FC000098100FF02C003FF07C031FC08C032FEE8
:100FD00009C030E2232E07C02DE2222E04C09BE27E
:100FE000292E01C0212C802F8C7019F0211068C28D
:100FF000A8C237FE0FC0E40C04FF04C08A8181330D
:1010000009F4EA941E1474F5F8E0FE1578F588E00A
:10101000E82E2CC036FC2AC0812F90E0841595055F
:101020009CF02CEF42162FEF520674F0432D4068CF
:10103000342E0AC0E2E0F0E0EC0FFD1FE10FF11DDD
:101040008081803319F411501111F4CF37FE0EC096
:10105000EE24E394E10E812F90E0481659062CF41B
:10106000141904C0EE24E39401C010E037FE06C05A
:101070001414150434F4C201019605C085E090E013
:1010800002C081E090E021100196112331F0212F60
:1010900030E02F5F3F4F820F931F2F2D30E08217DC
:1010A000930714F4F81A01C0F12C832D897049F4C8
:1010B000FF2039F0B60180E290E00E941E0CFA9405
:1010C000F7CF222029F0B601822D90E00E941E0C5D
:1010D00033FC09C0FF2039F0B60180E390E00E94A4
:1010E0001E0CFA94F7CF37FE5AC0942D852D57FE6B
:1010F00002C090E080E0292E382E20E030E0A201EE
:101100004E1951095D874C87A201421953095F8727
:101110004E87612F70E044275527461B570B598B8C
:10112000488B5FEF2516350649F4B6018EE290E054
:101130002A8B3B8B0E941E0C3B892A894214530444
:101140006CF04C855D854215530544F4EE85FF85B2
:10115000E20FF31FE60DF71D818101C080E351E02E
:10116000251A31082F5F3F4F4889598924163506C3
:101170004CF0B60190E02A8B3B8B0E941E0C2A8912
:101180003B89CFCF2414350439F49A81963318F46F
:10119000953311F404FF81E3B60190E04BC08A81DE
:1011A000813309F00F7EB60190E00E941E0C1111F0
:1011B00005C034FC18C085E690E017C0B6018EE289
:1011C00090E00E941E0C82E0EE24E394E80EF3010E
:1011D000E80FF11D8081B60190E00E941E0C1150B5
:1011E0008E2D91F7E6CF85E490E0B6010E941E0CAB
:1011F00057FC05C04114510439F404FF05C0519453
:10120000419451088DE201C08BE2B60190E00E944A
:101210001E0C80E39AE0491651042CF08F5F5AE0CF
:10122000451A5108F7CFB60190E00E941E0CB60196
:10123000C201C0960E941E0C57C1833631F083371D
:1012400079F0833509F058C021C05201E2E0AE0EBA
:10125000B11CF2018081898301E010E0230114C0F8
:101260005201F2E0AF0EB11CF2014080518026FF26
:1012700003C0612F70E002C06FEF7FEFC2012A8BC5
:101280000E94EE0B8C012A892F7715C05201F2E0E3
:10129000AF0EB11CF2014080518026FF03C0612FC8
:1012A00070E002C06FEF7FEFC2012A8B0E94E30B58
:1012B0008C012A892068322E23FD1AC08F2D90E0E0
:1012C00008171907A8F4B60180E290E00E941E0CEE
:1012D000FA94F4CFF20137FC859137FE81912F010A
:1012E000B60190E00E941E0CF110FA940150110911
:1012F0000115110579F7F8C0843611F0893659F5D2
:10130000520127FF09C0F4E0AF0EB11CF201608169
:101310007181828193810AC0F2E0AF0EB11CF201AB
:1013200060817181072E000C880B990B2F76322E6D
:1013300097FF09C090958095709561957F4F8F4F6D
:101340009F4F2068322E2AE030E0A3010E94560C05
:10135000E82EE6183FC0022F853721F40F7E2AE0E1
:1013600030E01DC0097F8F3691F018F4883559F0B0
:10137000C5C0803719F0883711F0C0C0006104FF84
:1013800009C0046007C024FF08C0066006C028E04A
:1013900030E005C020E130E002C020E132E052013F
:1013A00007FF09C0F4E0AF0EB11CF201608171814A
:1013B0008281938108C0F2E0AF0EB11CF20160811E
:1013C000718180E090E0A3010E94560CE82EE6189F
:1013D0000F77302E36FE0BC0332D3E7FE11650F4D2
:1013E00034FE0AC032FC08C0332D3E7E05C00E2DEF
:1013F000332D03C00E2D01C0012F34FF0CC0FE01A0
:10140000EE0DF11D8081803311F4397E08C032FF6A
:1014100005C00E5F04C0832F867809F00F5F33FD8F
:1014200013C030FF06C01E2D0F1518F41F0D101B22
:101430000F2D0F1568F4B60180E290E03B8B0E94FF
:101440001E0C0F5F3B89F5CF0F1510F4F01A01C089
:10145000F12C34FF12C0B60180E390E03B8B0E9478
:101460001E0C3B8932FF17C031FD03C088E790E0B6
:1014700002C088E590E0B6010CC0832F867859F051
:1014800031FF02C08BE201C080E237FD8DE2B60180
:1014900090E00E941E0CE11638F4B60180E390E063
:1014A0000E941E0C1150F7CFEA94F301EE0DF11DCE
:1014B0008081B60190E00E941E0CE110F5CF14C0AF
:1014C000F4E0FF1558F584E0F81A33FE1EC0211031
:1014D00026C003FF2AC004E510E0F32DF0713F2E73
:1014E000F8018491811124C0FF2009F4E5CCB601F4
:1014F00080E290E00E941E0CFA94F6CFF6018681FD
:10150000978126C08FEF9FEF23C0B60180E290E065
:101510000E941E0CFA94F110F8CFD9CFF12CB6012D
:10152000822D90E00E941E0CD4CF08E510E0D5CFAC
:1015300031108052B60190E00E941E0C0F5F1F4FC9
:10154000CFCF23E02F1510F483E0BECFF12CC1CF15
:101550006396E2E10C94DC0A97FB072E16F40094E4
:1015600007D077FD09D00E94F70A07FC05D03EF4AA
:10157000909581959F4F0895709561957F4F08953F
:101580002F923F924F925F926F927F928F929F9293
:10159000AF92BF92CF92DF92EF92FF920F931F9381
:1015A000CF93DF93CDB7DEB7CA1BDB0B0FB6F89432
:1015B000DEBF0FBECDBF09942A88398848885F8472
:1015C0006E847D848C849B84AA84B984C884DF80E3
:1015D000EE80FD800C811B81AA81B981CE0FD11DC7
:1015E0000FB6F894DEBF0FBECDBFED010895AA1B64
:1015F000BB1B51E107C0AA1FBB1FA617B70710F0FE
:10160000A61BB70B881F991F5A95A9F7809590952F
:10161000BC01CD010895283008F027E03327DA0116
:10162000990F311D87FD916000966105710539F4B0
:1016300032602E5F3D9330E32A95E1F708959F3F96
:1016400030F080387105610509F03C5F3C5F3D93E7
:10165000913008F08068911DDF93CF931F930F9313
:10166000FF92EF92192F987F9695E92F9695969570
:10167000E90FFF27EA54FF4F99273327EE24FF2471
:10168000A701E70105900894079428F4360FE71E98
:10169000F81E491F511D660F771F881F991F06945A
:1016A000A1F70590079428F4E70EF81E491F561F6E
:1016B000C11D770F881F991F661F0694A1F705901B
:1016C000079428F4F80E491F561FC71FD11D880F15
:1016D000991F661F771F0694A1F70590079420F4C1
:1016E000490F561FC71FD81F990F661F771F881FE6
:1016F0000694A9F784911095177041F0D695C79577
:1017000057954795F794E7941A95C1F7ECE5F0E003
:1017100068941590159135916591959105907FE2AA
:101720007395E118F10A430B560BC90BD009C0F7AA
:10173000E10CF11E431F561FC91FD01D7EF47033EC
:1017400011F48A95E6CFE894015030F0080F0AF4BE
:101750000027021708F4202F2395022F7A3328F050
:1017600079E37D932A95E9F710C07D932A9589F650
:10177000069497956795379517951794E118F10A90
:10178000430B560BC90BD00998F023957E917395A6
:101790007A3308F070E37C932013B8F77E91706180
:1017A0007D9330F0839571E37D9370E32A95E1F7A3
:1017B0001124EF90FF900F911F91CF91DF91992706
:1017C00087FD90950895FC010590615070400110CF
:1017D000D8F7809590958E0F9F1F0895FC0161505A
:1017E000704001900110D8F7809590958E0F9F1F43
:1017F0000895BB274A3031F4992322F4BDE2909535
:1018000081959F4F0C94050CBB27FB015527AA27F8
:10181000880F991FAA1FA41710F0A41B839550517D
:10182000B9F7A05DAA3308F0A95DA193009779F7F5
:10183000B111B1931192CB010C94B40C0F931F937F
:10184000CF93DF93FB01238121FD03C08FEF9FEF37
:1018500028C022FF16C04681578124813581421756
:10186000530744F4A081B1819D012F5F3F4F318325
:1018700020838C93268137812F5F3F4F37832683C8
:1018800010C0EB01092F182F0084F185E02D099578
:10189000892BE1F68E819F8101969F838E83812F14
:1018A000902FDF91CF911F910F910895FA01AA27F0
:1018B000283051F1203181F1E8946F936E7F6E5F93
:1018C0007F4F8F4F9F4FAF4FB1E03ED0B4E03CD041
:1018D000670F781F891F9A1FA11D680F791F8A1F24
:1018E000911DA11D6A0F711D811D911DA11D20D08B
:1018F00009F468943F912AE0269F11243019305D45
:101900003193DEF6CF010895462F4770405D419335
:10191000B3E00FD0C9F7F6CF462F4F70405D4A3382
:1019200018F0495D31FD4052419302D0A9F7EACF4A
:10193000B4E0A6959795879577956795BA95C9F779
:1019400000976105710508959B01AC010A2E06946C
:101950005795479537952795BA95C9F7620F731F25
:10196000841F951FA01D0895DC01FC01672F719154
:101970007723E1F7329704C07C916D937083629175
:0C198000AE17BF07C8F30895F894FFCF1E
:10198C00746865207370656564206973007468659C
:0E199C002074656D706572617475726500006F
:00000001FF
