:100000000C942A000C9447000C9447000C94470071
:100010000C9447000C9447000C9447000C94470044
:100020000C9447000C9447000C9447000C94470034
:100030000C9447000C9447000C9447000C94470024
:100040000C9447000C9447000C9447000C94470014
:100050000C94470011241FBECFE5D4E0DEBFCDBF16
:1000600010E0A0E6B0E0EEEAF8E002C005900D92E4
:10007000A637B107D9F720E0A6E7B0E001C01D928E
:10008000AC37B207E1F70E947E020C9455040C9441
:100090000000672B09F09FC0009711F4D8980895CD
:1000A0008130910511F4D99808958230910511F4A9
:1000B000DA9808958330910511F4DB98089584301F
:1000C000910511F4DC9808958530910511F4DD98BF
:1000D00008958630910511F4DE98089587309105D2
:1000E00011F4DF9808958A30910511F4C0980895AD
:1000F0008B30910511F4C19808958C30910511F45D
:10010000C29808958D30910511F4C39808958E30EA
:10011000910511F4C49808958F30910511F4C59894
:1001200008958031910511F4C698089581319105A3
:1001300011F4C79808958431910511F4A898089591
:100140008531910511F4A99808958631910511F42E
:10015000AA9808958731910511F4AB9808958831D4
:10016000910511F4AC9808958931910511F4AD9879
:1001700008958A31910511F4AE9808958B31910557
:1001800011F4AF9808958E31910511F49098089567
:100190008F31910511F4919808958032910511F4F1
:1001A000929808958132910511F4939808958232BE
:1001B000910511F4949808958332910511F495985E
:1001C00008958432910511F496980895859709F061
:1001D0009FC097980895009711F4D89A0895813098
:1001E000910511F4D99A08958230910511F4DA9AA3
:1001F00008958330910511F4DB9A089584309105B8
:1002000011F4DC9A08958530910511F4DD9A089572
:100210008630910511F4DE9A08958730910511F426
:10022000DF9A08958A30910511F4C09A08958B30B1
:10023000910511F4C19A08958C30910511F4C29A78
:1002400008958D30910511F4C39A08958E3091056B
:1002500011F4C49A08958F30910511F4C59A089548
:100260008031910511F4C69A08958131910511F4F8
:10027000C79A08958431910511F4A89A089585319B
:10028000910511F4A99A08958631910511F4AA9A5D
:1002900008958731910511F4AB9A0895883191053D
:1002A00011F4AC9A08958931910511F4AD9A08952D
:1002B0008A31910511F4AE9A08958B31910511F4AC
:1002C000AF9A08958E31910511F4909A08958F3167
:1002D000910511F4919A08958032910511F4929A42
:1002E00008958132910511F4939A0895823291050F
:1002F00011F4949A08958332910511F4959A089512
:100300008432910511F4969A0895859709F4979A85
:100310000895CF93C82F80FF07C061E070E08AE0A6
:1003200090E00E94490006C060E070E08AE090E042
:100330000E944900C1FF07C061E070E08BE090E0DF
:100340000E94490006C060E070E08BE090E00E94EF
:100350004900C2FF07C061E070E08CE090E00E94BD
:10036000490006C060E070E08CE090E00E94490027
:10037000C3FF07C061E070E08DE090E00E9449009B
:1003800006C060E070E08DE090E00E944900CF91EF
:100390000895CF93C82F60E070E08EE090E00E9457
:1003A00049008C2F0E94890161E070E08FE090E0AD
:1003B0000E9449008FE99FE00197F1F700C000001B
:1003C00060E070E08FE090E00E9449008FE99FE0DC
:1003D0000197F1F700C00000CF91089580E00E94DE
:1003E000C90181E00E94C901089580E00E9489014D
:1003F0002FEF89EF90E0215080409040E1F700C05E
:10040000000083E00E94C9018FE19EE40197F1F7AB
:1004100000C0000083E00E94C9018FED9BEA0197B4
:10042000F1F700C0000083E00E94C90182E00E9451
:10043000C90182E00E94C90188E00E94C90180E0F0
:100440000E94C9018CE00E94C90180E00E94C9019C
:1004500086E00E94C9010895CF93C82F61E070E043
:100460008EE090E00E9449008C2F82958F700E9450
:10047000890161E070E08FE090E00E9449008FE91F
:100480009FE00197F1F700C0000060E070E08FE0AE
:1004900090E00E9449008FE99FE00197F1F700C0CA
:1004A00000008C2F8F700E94890161E070E08FE066
:1004B00090E00E9449008FE99FE00197F1F700C0AA
:1004C000000060E070E08FE090E00E9449008FE95A
:1004D0009FE00197F1F700C00000CF910895CF93FE
:1004E000DF93EC018881882331F021960E942C0251
:1004F00089918111FBCFDF91CF9108958FEB87BB5D
:10050000D0980E94F5010E94C802369A0E94CD023E
:1005100090937B0080937A004AE066E770E00E9447
:10052000200480E690E00E946F022FEF83ED90E3BD
:10053000215080409040E1F700C000000E94EE0191
:1005400088E00E94C90185E00E94C90186E790E029
:100550000E946F022FEF83ED90E321508040904086
:10056000E1F700C0000080917A0090917B00813912
:10057000914020F486B386B38111C8CFC79880918B
:100580007A0090917B00813921E09207E0F7BECF9D
:1005900080EB87B987E886B90895369A3699FECFF9
:1005A00064B185B170E0762F6627770F770F80E012
:1005B00090E00E9492032AE037ED43E250E40E946B
:1005C000F10220E030E040E251E40E94F10220E03C
:1005D00030E04AE754E40E94F1020E946303CB0139
:1005E00008950E9405030C94E6030E94DF0358F06F
:1005F0000E94D80340F029F45F3F29F00C94CF0308
:1006000051110C941A040C94D5030E94F70368F35B
:100610009923B1F3552391F3951B550BBB27AA27BB
:1006200062177307840738F09F5F5F4F220F331FF5
:10063000441FAA1FA9F335D00E2E3AF0E0E832D0BD
:1006400091505040E695001CCAF72BD0FE2F29D0C0
:10065000660F771F881FBB1F261737074807AB0792
:10066000B0E809F0BB0B802DBF01FF2793585F4F07
:100670003AF09E3F510578F00C94CF030C941A0485
:100680005F3FE4F3983ED4F3869577956795B795E9
:10069000F7959F5FC9F7880F911D9695879597F9F4
:1006A0000895E1E0660F771F881FBB1F621773076D
:1006B0008407BA0720F0621B730B840BBA0BEE1F82
:1006C00088F7E09508950E94FF0388F09F5798F0FF
:1006D000B92F9927B751B0F0E1F0660F771F881F47
:1006E000991F1AF0BA95C9F714C0B13091F00E9461
:1006F0001904B1E008950C941904672F782F882706
:10070000B85F39F0B93FCCF3869577956795B39587
:10071000D9F73EF490958095709561957F4F8F4FF6
:100720009F4F0895E89409C097FB3EF490958095FB
:10073000709561957F4F8F4F9F4F9923A9F0F92FA7
:1007400096E9BB279395F695879577956795B79525
:10075000F111F8CFFAF4BB0F11F460FF1BC06F5F0B
:100760007F4F8F4F9F4F16C0882311F096E911C01D
:10077000772321F09EE8872F762F05C0662371F03E
:1007800096E8862F70E060E02AF09A95660F771F52
:10079000881FDAF7880F9695879597F9089597F946
:1007A0009F6780E870E060E008959FEF80EC089517
:1007B00000240A9416161706180609060895002440
:1007C0000A9412161306140605060895092E0394BA
:1007D000000C11F4882352F0BB0F40F4BF2B11F42E
:1007E00060FF04C06F5F7F4F8F4F9F4F089557FD8D
:1007F0009058440F551F59F05F3F71F04795880F8F
:1008000097FB991F61F09F3F79F087950895121625
:1008100013061406551FF2CF4695F1DF08C01616D1
:1008200017061806991FF1CF869571056105089482
:100830000895E894BB2766277727CB0197F9089599
:10084000BB274A3031F4992322F4BDE2909581957B
:100850009F4F0C942C04BB27FB015527AA27880F18
:10086000991FAA1FA41710F0A41B83955051B9F724
:10087000A05DAA3308F0A95DA193009779F7B111A3
:10088000B1931192CB010C944504DC01FC01672F5C
:1008900071917723E1F7329704C07C916D93708357
:0E08A0006291AE17BF07C8F30895F894FFCF1A
:1008AE005468652054656D7065726174757265204B
:0608BE004973203A2000FE
:00000001FF
