S01700004578747275646572436F6E74726F6C2E73726563D9
S11300000C94AB000C94BD000C94BD000C94BD008A
S11300100C94BD000C94BD000C94BD000C94BD0068
S11300200C94BD000C94BD000C94BD000C94BD0058
S11300300C94BD000C94BD000C94BD000C94BD0048
S11300400C94BD000C94BD000C94BD000C94BD0038
S11300500C94BD006E616E00696E660000407A10FB
S1130060F35A00A0724E18090010A5D4E80000E865
S11300707648170000E40B54020000CA9A3B0000C3
S113008000E1F505000080969800000040420F0052
S11300900000A08601000000102700000000E80313
S11300A0000000006400000000000A0000000000DE
S11300B00100000000002C76D888DC674F0823DF9D
S11300C0C1DFAE59E1B1B796E5E3E453C63AE65170
S11300D0997696E8E6C28426EB898C9B62ED407C97
S11300E06FFCEFBC9C9F40F2BAA56FA5F490055A33
S11300F02AF75C936B6CF9676DC11BFCE0E40D4758
S1130100FEF520E6B500D0ED902E0300943577057A
S11301100080841E080000204E0A000000C80C3332
S11301203333330F986E12831141EF8D2114893BC1
S1130130E65516CFFEE6DB18D1844B381BF77C1D41
S1130140901DA4BBE424203284725E228100C9F194
S113015024ECA1E53D2711241FBECFE5D4E0DEBF8A
S1130160CDBF20E0A0E6B0E001C01D92AC36B207DE
S1130170E1F70E94C6000C94250A0C94000068EE76
S113018073E080E190E00E94710308950E94BF0033
S1130190C1E0C0906400D0906500E0906600F090EB
S11301A0670020E030E0A901C701B6010E944704BE
S11301B0882309F4D2C0A701960160E070E088ECBE
S11301C092E40E94DA036B017C01809060009090BD
S11301D06100A0906200B090630020E030E0A901CB
S11301E0C501B4010E944704882309F499C0A501FC
S11301F0940160E070E088EC92E40E94DA034B0121
S11302005C0120E030E0A901C701B6010E94470467
S113021088237CF408C00F2E812C912CF8ECAF2E8F
S1130220F2E4BF2EF02DF7FAF094F7F8F094C093AF
S1130230680020E030E0A901C501B4010E94470430
S1130240882334F4B7FAB094B7F8B094C093690033
S113025020E030E0A901C701B6010E94C10488234F
S11302604CF420C00F2E812C912CF8ECAF2EF2E42C
S1130270BF2EF02D8091680061E070E090E00E9454
S1130280AB0320E030E040E85FE3C701B6010E9421
S1130290DA036B017C0120E030E0A9010E94C10473
S11302A0882344F720E030E0A901C501B4010E948D
S11302B0C1048823C4F08091690061E070E090E09B
S11302C00E94AB0320E030E040E85FE3C501B401E5
S11302D00E94DA034B015C0120E030E0A9010E9496
S11302E0C104882344F780E090E0A8ECB2E4809352
S11302F0640090936500A0936600B09367008093B8
S1130300600090936100A0936200B093630041CFBA
S11303100F2EC12CD12CF8ECEF2EF2E4FF2EF02D91
S113032020E030E0A901C701B6010E9447048823F8
S113033034F571CFA701960160E070E088EC92E497
S11303400E94DA034B015C010F2EC12CD12CF8EC76
S1130350EF2EF2E4FF2EF02D6CCFC0906000D09011
S11303606100E0906200F090630020E030E0A901B9
S1130370C701B6010E944704882351F2DBCF20E075
S113038030E0A901C701B6010E94C10488230CF022
S113039069CF0F2E812C912CF8ECAF2EF2E4BF2EF6
S11303A0F02D89CF672B09F09FC0009711F4D898DE
S11303B008958130910511F4D998089582309105FA
S11303C011F4DA9808958330910511F4DB980895B7
S11303D08430910511F4DC9808958530910511F469
S11303E0DD9808958630910511F4DE9808958730DC
S11303F0910511F4DF9808958A30910511F4C0989D
S113040008958B30910511F4C19808958C309105AD
S113041011F4C29808958D30910511F4C39808958C
S11304208E30910511F4C49808958F30910511F41C
S1130430C59808958031910511F4C69808958131C5
S1130440910511F4C79808958431910511F4A89881
S113045008958531910511F4A9980895863191057F
S113046011F4AA9808958731910511F4AB98089571
S11304708831910511F4AC9808958931910511F4EE
S1130480AD9808958A31910511F4AE9808958B3191
S1130490910511F4AF9808958E31910511F4909857
S11304A008958F31910511F4919808958032910542
S11304B011F4929808958132910511F49398089556
S11304C08232910511F4949808958332910511F4C0
S11304D0959808958432910511F496980895859716
S11304E009F09FC097980895009711F4D89A089539
S11304F08130910511F4D99A08958230910511F44F
S1130500DA9A08958330910511F4DB9A08958430C2
S1130510910511F4DC9A08958530910511F4DD9A62
S113052008958630910511F4DE9A08958730910577
S113053011F4DF9A08958A30910511F4C09A089550
S11305408B30910511F4C19A08958C30910511F402
S1130550C29A08958D30910511F4C39A08958E308E
S1130560910511F4C49A08958F30910511F4C59A38
S113057008958031910511F4C69A08958131910549
S113058011F4C79A08958431910511F4A89A089535
S11305908531910511F4A99A08958631910511F4D4
S11305A0AA9A08958731910511F4AB9A0895883178
S11305B0910511F4AC9A08958931910511F4AD9A1D
S11305C008958A31910511F4AE9A08958B319105FD
S11305D011F4AF9A08958E31910511F4909A08950B
S11305E08F31910511F4919A08958032910511F497
S11305F0929A08958132910511F4939A0895823262
S1130600910511F4949A08958332910511F4959A01
S113061008958432910511F4969A0895859709F402
S1130620979A089560E070E084E190E00E94D2011E
S113063060E070E085E190E00E94D20160E070E04B
S113064086E190E00E94D201089561E070E084E1C7
S113065090E00E94D20160E070E085E190E00E94A9
S1130660D20160E070E086E190E00E94D20108953A
S113067060E070E084E190E00E94D20161E070E00B
S113068085E190E00E94D20160E070E086E190E0B4
S11306900E94D201089561E070E084E190E00E943C
S11306A0D20161E070E085E190E00E94D20160E057
S11306B070E086E190E00E94D201089561E070E06C
S11306C084E190E00E94D20161E070E085E190E075
S11306D00E94D20161E070E086E190E00E94D201C4
S11306E00895CF93DF93EB018630910599F034F4AC
S11306F08130910549F0029751F014C0883091057A
S113070061F0409769F00EC00E9412030BC00E9472
S1130710250308C00E94380305C00E944B0302C091
S11307200E945E03D0936B00C0936A00DF91CF9167
S11307300895BC0188EE93E00E944208161617063D
S11307404CF489EF90E00197F1F700C0000061508C
S11307507109B9F70895CF93C62F882339F061E062
S113076070E088E190E00E94D20106C060E070E091
S113077088E190E00E94D201CC23D1F061E070E0E6
S113078087E190E00E94D20189EF90E00197F1F7B0
S113079000C0000060E070E087E190E00E94D201B8
S11307A080916A0090916B000E949903C15031F7C7
S11307B0CF9108955058BB27AA270E94F2030C94A6
S11307C087040E94790438F00E94800420F039F4F0
S11307D09F3F19F426F40C9476040EF4E095E7FB9D
S11307E00C947004E92F0E94980458F3BA17620716
S11307F073078407950720F079F4A6F50C94BA04DE
S11308000EF4E0950B2EBA2FA02D0B01B901900127
S11308100C01CA01A0011124FF27591B99F0593F6B
S113082050F4503E68F11A16F040A22F232F342FB3
S11308304427585FF3CF469537952795A795F04001
S11308405395C9F77EF41F16BA0B620B730B840B16
S1130850BAF09150A1F0FF0FBB1F661F771F881FCE
S1130860C2F70EC0BA0F621F731F841F48F4879526
S113087077956795B795F7959E3F08F0B0CF939518
S1130880880F08F09927EE0F9795879508950E9491
S11308904C0408F481E00895990F0008550FAA0B41
S11308A0E0E8FEEF16161706E807F907C0F012167F
S11308B01306E407F50798F0621B730B840B950B82
S11308C039F40A2661F0232B242B252B21F40895D7
S11308D00A2609F4A140A6958FEF811D811D089574
S11308E097F99F6780E870E060E008959FEF80ECDF
S11308F0089500240A941616170618060906089582
S113090000240A9412161306140605060895092EE7
S11309100394000C11F4882352F0BB0F40F4BF2B56
S113092011F460FF04C06F5F7F4F8F4F9F4F089596
S113093057FD9058440F551F59F05F3F71F047958C
S1130940880F97FB991F61F09F3F79F08795089571
S1130950121613061406551FF2CF4695F1DF08C090
S1130960161617061806991FF1CF869571056105AD
S113097008940895E894BB2766277727CB0197F955
S113098008950E944C0408F48FEF0895A3E1B0E0A9
S1130990ECECF4E00C9456086C014B012A01FC01C8
S11309A017821682838181FF43C3AE014F5F5F4F7D
S11309B03A01F6019381F40193FD859193FF8191AE
S11309C04F01882309F430C3853239F493FD8591AE
S11309D093FF81914F01853239F4B60190E00E9472
S11309E08F0952012501E5CF10E0F12C20E02032DF
S11309F0A0F48B3269F030F4803259F0833269F418
S1130A0020612CC08D3239F0803339F4216026C046
S1130A102260246023C0286021C027FD27C030ED58
S1130A20380F3A3078F426FF06C0FAE01F9F300DE5
S1130A301124132F13C04AE0F49E300D1124F32E19
S1130A4020620CC08E3221F426FDEEC2206406C062
S1130A508C3611F4206802C0883641F4F40193FD09
S1130A60859193FF81914F018111C1CF9BEB980F29
S1130A70933018F42061805E06C09BE9980F933090
S1130A8008F071C12F7E26FF16E02F73322E8536B3
S1130A9019F42064322E08C0863621F4F22FF0684F
S1130AA03F2E02C01111115037FE07C01C3350F401
S1130AB0EE24E394E10E27E00BC0183038F027E071
S1130AC017E005C027E04CE3E42E02C0212FE12CFF
S1130AD0520144E0A40EB11CF20160817181828153
S1130AE093810E2DA3010E94A1082C01098100FF0E
S1130AF002C003FF07C031FC08C032FE09C030E267
S1130B00232E07C02DE2222E04C09BE2292E01C011
S1130B10212C802F8C7019F0211068C2A8C237FED6
S1130B200FC0E40C04FF04C08A81813309F4EA9401
S1130B301E1474F5F8E0FE1578F588E0E82E2CC054
S1130B4036FC2AC0812F90E0841595059CF02CEF8B
S1130B5042162FEF520674F0432D4068342E0AC01B
S1130B60E2E0F0E0EC0FFD1FE10FF11D8081803326
S1130B7019F411501111F4CF37FE0EC0EE24E39492
S1130B80E10E812F90E0481659062CF4141904C084
S1130B90EE24E39401C010E037FE06C014141504DB
S1130BA034F4C201019605C085E090E002C081E002
S1130BB090E021100196112331F0212F30E02F5FB6
S1130BC03F4F820F931F2F2D30E08217930714F4A9
S1130BD0F81A01C0F12C832D897049F4FF2039F0F3
S1130BE0B60180E290E00E948F09FA94F7CF2220A8
S1130BF029F0B601822D90E00E948F0933FC09C0D0
S1130C00FF2039F0B60180E390E00E948F09FA9446
S1130C10F7CF37FE5AC0942D852D57FE02C090E0C1
S1130C2080E0292E382E20E030E0A2014E1951092F
S1130C305D874C87A201421953095F874E87612F54
S1130C4070E044275527461B570B598B488B5FEFA1
S1130C502516350649F4B6018EE290E02A8B3B8BCB
S1130C600E948F093B892A89421453046CF04C85F5
S1130C705D854215530544F4EE85FF85E20FF31FAD
S1130C80E60DF71D818101C080E351E0251A31088A
S1130C902F5F3F4F48895989241635064CF0B60119
S1130CA090E02A8B3B8B0E948F092A893B89CFCF06
S1130CB02414350439F49A81963318F4953311F4D5
S1130CC004FF81E3B60190E04BC08A81813309F0CF
S1130CD00F7EB60190E00E948F09111105C034FC0B
S1130CE018C085E690E017C0B6018EE290E00E943D
S1130CF08F0982E0EE24E394E80EF301E80FF11D7E
S1130D008081B60190E00E948F0911508E2D91F7D9
S1130D10E6CF85E490E0B6010E948F0957FC05C038
S1130D204114510439F404FF05C05194419451080D
S1130D308DE201C08BE2B60190E00E948F0980E34E
S1130D409AE0491651042CF08F5F5AE0451A510875
S1130D50F7CFB60190E00E948F09B601C201C09698
S1130D600E948F0957C1833631F0833779F0833578
S1130D7009F058C021C05201E2E0AE0EB11CF201EC
S1130D808081898301E010E0230114C05201F2E064
S1130D90AF0EB11CF2014080518026FF03C0612FC9
S1130DA070E002C06FEF7FEFC2012A8B0E948409BA
S1130DB08C012A892F7715C05201F2E0AF0EB11CC5
S1130DC0F2014080518026FF03C0612F70E002C011
S1130DD06FEF7FEFC2012A8B0E9479098C012A8967
S1130DE02068322E23FD1AC08F2D90E008171907B2
S1130DF0A8F4B60180E290E00E948F09FA94F4CF3F
S1130E00F20137FC859137FE81912F01B60190E004
S1130E100E948F09F110FA9401501109011511056E
S1130E2079F7F8C0843611F0893659F5520127FF55
S1130E3009C0F4E0AF0EB11CF201608171818281BE
S1130E4093810AC0F2E0AF0EB11CF201608171819E
S1130E50072E000C880B990B2F76322E97FF09C0B2
S1130E6090958095709561957F4F8F4F9F4F206827
S1130E70322E2AE030E0A3010E94C709E82EE618CA
S1130E803FC0022F853721F40F7E2AE030E01DC0D9
S1130E90097F8F3691F018F4883559F0C5C0803732
S1130EA019F0883711F0C0C0006104FF09C0046064
S1130EB007C024FF08C0066006C028E030E005C073
S1130EC020E130E002C020E132E0520107FF09C016
S1130ED0F4E0AF0EB11CF2016081718182819381D3
S1130EE008C0F2E0AF0EB11CF2016081718180E0B4
S1130EF090E0A3010E94C709E82EE6180F77302E70
S1130F0036FE0BC0332D3E7FE11650F434FE0AC08A
S1130F1032FC08C0332D3E7E05C00E2D332D03C098
S1130F200E2D01C0012F34FF0CC0FE01EE0DF11D8A
S1130F308081803311F4397E08C032FF05C00E5F12
S1130F4004C0832F867809F00F5F33FD13C030FF90
S1130F5006C01E2D0F1518F41F0D101B0F2D0F1595
S1130F6068F4B60180E290E03B8B0E948F090F5F2A
S1130F703B89F5CF0F1510F4F01A01C0F12C34FFA2
S1130F8012C0B60180E390E03B8B0E948F093B893D
S1130F9032FF17C031FD03C088E790E002C088E546
S1130FA090E0B6010CC0832F867859F031FF02C05F
S1130FB08BE201C080E237FD8DE2B60190E00E9431
S1130FC08F09E11638F4B60180E390E00E948F099E
S1130FD01150F7CFEA94F301EE0DF11D8081B601B3
S1130FE090E00E948F09E110F5CF14C0F4E0FF15E2
S1130FF058F584E0F81A33FE1EC0211026C003FF02
S11310002AC004E510E0F32DF0713F2EF80184911D
S1131010811124C0FF2009F4E5CCB60180E290E000
S11310200E948F09FA94F6CFF6018681978126C033
S11310308FEF9FEF23C0B60180E290E00E948F09FA
S1131040FA94F110F8CFD9CFF12CB601822D90E0AB
S11310500E948F09D4CF08E510E0D5CF311080521B
S1131060B60190E00E948F090F5F1F4FCFCF23E09E
S11310702F1510F483E0BECFF12CC1CF6396E2E1CB
S11310800C94720897FB072E16F4009407D077FD92
S113109009D00E948D0807FC05D03EF490958195F7
S11310A09F4F0895709561957F4F08952F923F92B9
S11310B04F925F926F927F928F929F92AF92BF9264
S11310C0CF92DF92EF92FF920F931F93CF93DF9310
S11310D0CDB7DEB7CA1BDB0B0FB6F894DEBF0FBE6D
S11310E0CDBF09942A88398848885F846E847D84BA
S11310F08C849B84AA84B984C884DF80EE80FD80BC
S11311000C811B81AA81B981CE0FD11D0FB6F89431
S1131110DEBF0FBECDBFED010895AA1BBB1B51E17D
S113112007C0AA1FBB1FA617B70710F0A61BB70B53
S1131130881F991F5A95A9F780959095BC01CD01F8
S11311400895283008F027E03327DA01990F311D7C
S113115087FD916000966105710539F432602E5F58
S11311603D9330E32A95E1F708959F3F30F08038AE
S11311707105610509F03C5F3C5F3D93913008F0D7
S11311808068911DDF93CF931F930F93FF92EF928B
S1131190192F987F9695E92F96959695E90FFF2735
S11311A0EA54FF4F99273327EE24FF24A701E701D0
S11311B005900894079428F4360FE71EF81E491F7B
S11311C0511D660F771F881F991F0694A1F705907C
S11311D0079428F4E70EF81E491F561FC11D770F08
S11311E0881F991F661F0694A1F70590079428F499
S11311F0F80E491F561FC71FD11D880F991F661F60
S1131200771F0694A1F70590079420F4490F561F01
S1131210C71FD81F990F661F771F881F0694A9F749
S113122084911095177041F0D695C79557954795B9
S1131230F794E7941A95C1F7ECE5F0E068941590FB
S1131240159135916591959105907FE27395E1181B
S1131250F10A430B560BC90BD009C0F7E10CF11E80
S1131260431F561FC91FD01D7EF4703311F48A9595
S1131270E6CFE894015030F0080F0AF40027021773
S113128008F4202F2395022F7A3328F079E37D93F5
S11312902A95E9F710C07D932A9589F606949795C7
S11312A06795379517951794E118F10A430B560B78
S11312B0C90BD00998F023957E9173957A3308F081
S11312C070E37C932013B8F77E9170617D9330F0C6
S11312D0839571E37D9370E32A95E1F71124EF90F0
S11312E0FF900F911F91CF91DF91992787FD9095E2
S11312F00895FC010590615070400110D8F7809565
S113130090958E0F9F1F0895FC01615070400190CD
S11313100110D8F7809590958E0F9F1F08950F9315
S11313201F93CF93DF93FB01238121FD03C08FEF34
S11313309FEF28C022FF16C0468157812481358142
S11313404217530744F4A081B1819D012F5F3F4FA1
S1131350318320838C93268137812F5F3F4F3783DE
S1131360268310C0EB01092F182F0084F185E02D8E
S11313700995892BE1F68E819F8101969F838E8347
S1131380812F902FDF91CF911F910F910895FA0132
S1131390AA27283051F1203181F1E8946F936E7FB0
S11313A06E5F7F4F8F4F9F4FAF4FB1E03ED0B4E0A1
S11313B03CD0670F781F891F9A1FA11D680F791FE2
S11313C08A1F911DA11D6A0F711D811D911DA11DF3
S11313D020D009F468943F912AE0269F1124301903
S11313E0305D3193DEF6CF010895462F4770405D9E
S11313F04193B3E00FD0C9F7F6CF462F4F70405D4D
S11314004A3318F0495D31FD4052419302D0A9F7A7
S1131410EACFB4E0A6959795879577956795BA95A1
S1131420C9F700976105710508959B01AC010A2E67
S113143006945795479537952795BA95C9F7620F3E
S1111440731F841F951FA01D0895F894FFCFFD
S9030000FC
