S01700004578747275646572436F6E74726F6C2E73726563D9
S11300000C942A000C943C000C943C000C943C008E
S11300100C943C000C943C000C943C000C943C006C
S11300200C943C000C943C000C943C000C943C005C
S11300300C943C000C943C000C943C000C943C004C
S11300400C943C000C943C000C943C000C943C003C
S11300500C943C0011241FBECFE5D4E0DEBFCDBF1D
S113006020E0A0E6B0E001C01D92A636B207E1F799
S11300700E9489020C94FE020C940000672B09F084
S11300809FC0009711F4D89808958130910511F418
S1130090D99808958230910511F4DA98089583303F
S11300A0910511F4DB9808958430910511F4DC98DE
S11300B008958530910511F4DD98089586309105F1
S11300C011F4DE9808958730910511F4DF980895AE
S11300D08A30910511F4C09808958B30910511F47C
S11300E0C19808958C30910511F4C29808958D300B
S11300F0910511F4C39808958E30910511F4C498B4
S113010008958F30910511F4C598089580319105B3
S113011011F4C69808958131910511F4C798089592
S11301208431910511F4A89808958531910511F44D
S1130130A99808958631910511F4AA9808958731F4
S1130140910511F4AB9808958831910511F4AC9898
S113015008958931910511F4AD9808958A31910576
S113016011F4AE9808958B31910511F4AF98089568
S11301708E31910511F4909808958F31910511F401
S1130180919808958032910511F4929808958132DE
S1130190910511F4939808958232910511F494987D
S11301A008958332910511F4959808958432910548
S11301B011F496980895859709F09FC0979808952B
S11301C0009711F4D89A08958130910511F4D99AC1
S11301D008958230910511F4DA9A089583309105D7
S11301E011F4DB9A08958430910511F4DC9A089592
S11301F08530910511F4DD9A08958630910511F446
S1130200DE9A08958730910511F4DF9A08958A30B3
S1130210910511F4C09A08958B30910511F4C19A97
S113022008958C30910511F4C29A08958D3091058A
S113023011F4C39A08958E30910511F4C49A089567
S11302408F30910511F4C59A08958031910511F408
S1130250C69A08958131910511F4C79A089584319D
S1130260910511F4A89A08958531910511F4A99A7C
S113027008958631910511F4AA9A0895873191055C
S113028011F4AB9A08958831910511F4AC9A08954C
S11302908931910511F4AD9A08958A31910511F4CB
S11302A0AE9A08958B31910511F4AF9A08958E3169
S11302B0910511F4909A08958F31910511F4919A52
S11302C008958032910511F4929A0895813291052E
S11302D011F4939A08958232910511F4949A089531
S11302E08332910511F4959A08958432910511F49D
S11302F0969A0895859709F4979A0895CF93C82FED
S113030080FF07C061E070E08AE090E00E943E0058
S113031006C060E070E08AE090E00E943E00C1FF09
S113032007C061E070E08BE090E00E943E0006C0F0
S113033060E070E08BE090E00E943E00C2FF07C0E6
S113034061E070E08CE090E00E943E0006C060E056
S113035070E08CE090E00E943E00C3FF07C061E0C3
S113036070E08DE090E00E943E0006C060E070E026
S11303708DE090E00E943E00CF910895CF93C82F66
S113038060E070E08EE090E00E943E008C2F0E94BE
S11303907E0161E070E08FE090E00E943E008FE912
S11303A09FE00197F1F700C0000060E070E08FE08B
S11303B090E00E943E008FE99FE00197F1F700C0B2
S11303C00000CF910895CF93C62F813059F480E86F
S11303D0860F82958F700E94BE018C2F8F700E94B1
S11303E0BE010CC0823051F480EC860F82958F7070
S11303F00E94BE018C2F8F700E94BE01CF91089580
S113040080E00E947E012FEF89EF90E02150804030
S11304109040E1F700C0000083E00E94BE018FE13C
S11304209EE40197F1F700C0000083E00E94BE0142
S11304308FED9BEA0197F1F700C0000083E00E9472
S1130440BE0182E00E94BE0182E00E94BE0188E0FB
S11304500E94BE0180E00E94BE018CE00E94BE01A9
S113046080E00E94BE0186E00E94BE010895CF9301
S1130470C82F61E070E08EE090E00E943E008C2F77
S113048082958F700E947E0161E070E08FE090E0C1
S11304900E943E008FE99FE00197F1F700C0000041
S11304A060E070E08FE090E00E943E008FE99FE002
S11304B00197F1F700C000008C2F8F700E947E011D
S11304C061E070E08FE090E00E943E008FE99FE0E1
S11304D00197F1F700C0000060E070E08FE090E069
S11304E00E943E008FE99FE00197F1F700C00000F1
S11304F0CF910895CF93DF93EC018881882331F065
S113050021960E94370289918111FBCFDF91CF910F
S113051008958FEF87BBD1980E9400020E94AD021C
S11305200E94B20290936500809364004AE060E602
S113053070E00E94C90265E081E00E94E30180E668
S113054090E00E947A022FEF83ED90E321508040E7
S11305509040E1F700C00000E3CF80E487B986EB68
S113056086B9089586B1829586958695837086B9F5
S11305703699FECF24B185B130E0322F2227330FD4
S1130580330F81E090E02035334C10F480E090E0AC
S11305900895BB274A3031F4992322F4BDE29095A3
S11305A081959F4F0C94D502BB27FB015527AA27A1
S11305B0880F991FAA1FA41710F0A41B83955051EC
S11305C0B9F7A05DAA3308F0A95DA193009779F764
S11305D0B111B1931192CB010C94EE02DC01FC0138
S11305E0672F71917723E1F7329704C07C916D9363
S11305F070836291AE17BF07C8F30895F894FFCFD4
S9030000FC
