:100000000C94AB000C94C6030C94D5030C94C8005C
:100010000C94C8000C94C8000C94C8000C94C80040
:100020000C94C8000C94C8000C94C8000C94C80030
:100030000C94C8000C94C8000C94C8000C94C80020
:100040000C94C8000C94C8000C94C8000C94C80010
:100050000C94C8006E616E00696E660000407A10F4
:10006000F35A00A0724E18090010A5D4E80000E869
:100070007648170000E40B54020000CA9A3B0000C7
:1000800000E1F505000080969800000040420F0056
:100090000000A08601000000102700000000E80317
:1000A000000000006400000000000A0000000000E2
:1000B0000100000000002C76D888DC674F0823DFA1
:1000C000C1DFAE59E1B1B796E5E3E453C63AE65174
:1000D000997696E8E6C28426EB898C9B62ED407C9B
:1000E0006FFCEFBC9C9F40F2BAA56FA5F490055A37
:1000F0002AF75C936B6CF9676DC11BFCE0E40D475C
:10010000FEF520E6B500D0ED902E0300943577057E
:100110000080841E080000204E0A000000C80C3336
:100120003333330F986E12831141EF8D2114893BC5
:10013000E65516CFFEE6DB18D1844B381BF77C1D45
:10014000901DA4BBE424203284725E228100C9F198
:1001500024ECA1E53D2711241FBECFE5D4E0DEBF8E
:10016000CDBF10E0A0E6B0E0E2E8FCE102C00590FF
:100170000D92A037B107D9F720E0A0E7B0E001C0A9
:100180001D92AB3DB207E1F70E945B030C943F0E5A
:100190000C940000672B09F09FC0009711F4D898C9
:1001A00008958130910511F4D99808958230910510
:1001B00011F4DA9808958330910511F4DB980895CD
:1001C0008430910511F4DC9808958530910511F47F
:1001D000DD9808958630910511F4DE9808958730F2
:1001E000910511F4DF9808958A30910511F4C098B3
:1001F00008958B30910511F4C19808958C309105C4
:1002000011F4C29808958D30910511F4C3980895A2
:100210008E30910511F4C49808958F30910511F432
:10022000C59808958031910511F4C69808958131DB
:10023000910511F4C79808958431910511F4A89897
:1002400008958531910511F4A99808958631910595
:1002500011F4AA9808958731910511F4AB98089587
:100260008831910511F4AC9808958931910511F404
:10027000AD9808958A31910511F4AE9808958B31A7
:10028000910511F4AF9808958E31910511F490986D
:1002900008958F31910511F4919808958032910558
:1002A00011F4929808958132910511F4939808956C
:1002B0008232910511F4949808958332910511F4D6
:1002C000959808958432910511F49698089585972C
:1002D00009F09FC097980895009711F4D89A08954F
:1002E0008130910511F4D99A08958230910511F465
:1002F000DA9A08958330910511F4DB9A08958430D9
:10030000910511F4DC9A08958530910511F4DD9A78
:1003100008958630910511F4DE9A0895873091058D
:1003200011F4DF9A08958A30910511F4C09A089566
:100330008B30910511F4C19A08958C30910511F418
:10034000C29A08958D30910511F4C39A08958E30A4
:10035000910511F4C49A08958F30910511F4C59A4E
:1003600008958031910511F4C69A0895813191055F
:1003700011F4C79A08958431910511F4A89A08954B
:100380008531910511F4A99A08958631910511F4EA
:10039000AA9A08958731910511F4AB9A089588318E
:1003A000910511F4AC9A08958931910511F4AD9A33
:1003B00008958A31910511F4AE9A08958B31910513
:1003C00011F4AF9A08958E31910511F4909A089521
:1003D0008F31910511F4919A08958032910511F4AD
:1003E000929A08958132910511F4939A0895823278
:1003F000910511F4949A08958332910511F4959A18
:1004000008958432910511F4969A0895859709F418
:10041000979A0895CF93C82F80FF07C061E070E0DE
:100420008AE090E00E94CA0006C060E070E08AE0C6
:1004300090E00E94CA00C1FF07C061E070E08BE05D
:1004400090E00E94CA0006C060E070E08BE090E09F
:100450000E94CA00C2FF07C061E070E08CE090E03B
:100460000E94CA0006C060E070E08CE090E00E944C
:10047000CA00C3FF07C061E070E08DE090E00E9419
:10048000CA0006C060E070E08DE090E00E94CA0003
:10049000CF910895CF93C82F60E070E08EE090E098
:1004A0000E94CA008C2F0E940A0261E070E08FE077
:1004B00090E00E94CA008FE99FE00197F1F700C029
:1004C000000060E070E08FE090E00E94CA008FE9D9
:1004D0009FE00197F1F700C00000CF91089580E000
:1004E0000E944A0281E00E944A020895CF93C62FDB
:1004F000813059F480E8860F82958F700E944A02FD
:100500008C2F8F700E944A020CC0823051F480EC14
:10051000860F82958F700E944A028C2F8F700E94E6
:100520004A02CF91089580E00E940A022FEF89EFDE
:1005300090E0215080409040E1F700C0000083E04F
:100540000E944A028FE19EE40197F1F700C000008B
:1005500083E00E944A028FED9BEA0197F1F700C009
:10056000000083E00E944A0282E00E944A0282E088
:100570000E944A0288E00E944A0280E00E944A02E9
:100580008CE00E944A0280E00E944A0286E00E94BB
:100590004A020895CF93C82F61E070E08EE090E0AA
:1005A0000E94CA008C2F82958F700E940A0261E01F
:1005B00070E08FE090E00E94CA008FE99FE0019711
:1005C000F1F700C0000060E070E08FE090E00E9472
:1005D000CA008FE99FE00197F1F700C000008C2F5F
:1005E0008F700E940A0261E070E08FE090E00E944C
:1005F000CA008FE99FE00197F1F700C0000060E0BA
:1006000070E08FE090E00E94CA008FE99FE00197C0
:10061000F1F700C00000CF910895CF93DF93EC0174
:100620008881882331F021960E94CA028991811124
:10063000FBCFDF91CF910895813019F087B187B951
:1006400001C0389A369A3699FECF64B175B180E010
:1006500090E00E94DE0528E638EE4FE95BE30E9459
:1006600049066093D7007093D8008093D900909387
:10067000DA006091D7007091D8008091D9009091F4
:10068000DA00089585B7866085BF8BB7806C8BBF15
:1006900086B1876886B93E9A85B58F6685BD7894A0
:1006A00087B38F6387BB8AB38ABB84B38F6184BBF4
:1006B0000E94930208950E944203C2E7D0E080E0C6
:1006C0000E941C036B017C018091D6008823B1F14C
:1006D00020E030E048ED51E4C701B6010E94440635
:1006E000882364F181E00E941C030E94A8056B012D
:1006F0007C010E946F02B60180E190E00E948005BB
:100700004AE0BE01C6010E94C30B61E081E00E9485
:10071000760280E690E00E940D0361E082E00E9494
:100720007602CE010E940D032FEF89E698E1215059
:1007300080409040E1F700C00000C1CF80E00E94FF
:100740001C030E946F020DE610E023E043E0C701A6
:10075000B6010E94B50A9F938F93DF93CF930E94B7
:10076000200C61E081E00E947602CE010E940D0320
:100770009FEF29E688E1915020408040E1F700C0DA
:1007800000000F900F900F900F9099CF1F920F9233
:100790000FB60F9211248F9381E08093D6008F9132
:1007A0000F900FBE0F901F9018951F920F920FB6CB
:1007B0000F9211241092D6000F900FBE0F901F9031
:1007C0001895672B09F09FC0009711F4D8980895E9
:1007D0008130910511F4D99808958230910511F472
:1007E000DA9808958330910511F4DB9808958430E8
:1007F000910511F4DC9808958530910511F4DD9888
:1008000008958630910511F4DE980895873091059A
:1008100011F4DF9808958A30910511F4C098089575
:100820008B30910511F4C19808958C30910511F425
:10083000C29808958D30910511F4C39808958E30B3
:10084000910511F4C49808958F30910511F4C5985D
:1008500008958031910511F4C6980895813191056C
:1008600011F4C79808958431910511F4A89808955A
:100870008531910511F4A99808958631910511F4F7
:10088000AA9808958731910511F4AB98089588319D
:10089000910511F4AC9808958931910511F4AD9842
:1008A00008958A31910511F4AE9808958B31910520
:1008B00011F4AF9808958E31910511F49098089530
:1008C0008F31910511F4919808958032910511F4BA
:1008D000929808958132910511F493980895823287
:1008E000910511F4949808958332910511F4959827
:1008F00008958432910511F496980895859709F02A
:100900009FC097980895009711F4D89A0895813060
:10091000910511F4D99A08958230910511F4DA9A6B
:1009200008958330910511F4DB9A08958430910580
:1009300011F4DC9A08958530910511F4DD9A08953B
:100940008630910511F4DE9A08958730910511F4EF
:10095000DF9A08958A30910511F4C09A08958B307A
:10096000910511F4C19A08958C30910511F4C29A41
:1009700008958D30910511F4C39A08958E30910534
:1009800011F4C49A08958F30910511F4C59A089511
:100990008031910511F4C69A08958131910511F4C1
:1009A000C79A08958431910511F4A89A0895853164
:1009B000910511F4A99A08958631910511F4AA9A26
:1009C00008958731910511F4AB9A08958831910506
:1009D00011F4AC9A08958931910511F4AD9A0895F6
:1009E0008A31910511F4AE9A08958B31910511F475
:1009F000AF9A08958E31910511F4909A08958F3130
:100A0000910511F4919A08958032910511F4929A0A
:100A100008958132910511F4939A089582329105D7
:100A200011F4949A08958332910511F4959A0895DA
:100A30008432910511F4969A0895859709F4979A4E
:100A4000089560E070E08AE090E00E94E10360E0D9
:100A500070E08BE090E00E94E10360E070E08CE0E9
:100A600090E00E94E103089561E070E08AE090E088
:100A70000E94E10360E070E08BE090E00E94E103FF
:100A800060E070E08CE090E00E94E103089560E097
:100A900070E08AE090E00E94E10361E070E08BE0AA
:100AA00090E00E94E10360E070E08CE090E00E9442
:100AB000E103089561E070E08AE090E00E94E103C4
:100AC00061E070E08BE090E00E94E10360E070E0A4
:100AD0008CE090E00E94E103089561E070E08AE01C
:100AE00090E00E94E10361E070E08BE090E00E9402
:100AF000E10361E070E08CE090E00E94E103089582
:100B0000CF93C62F8630910599F034F4813091054A
:100B100049F0029751F014C08830910561F0409778
:100B200069F00EC00E9421050BC00E94340508C068
:100B30000E94470505C00E945A0502C00E946D052B
:100B40006C2F70E07093710060937000CF910895E6
:100B50000E94AF056894B1110C943E0608950E945E
:100B6000230688F09F5798F0B92F9927B751B0F016
:100B7000E1F0660F771F881F991F1AF0BA95C9F721
:100B800014C0B13091F00E943D06B1E008950C947C
:100B90003D06672F782F8827B85F39F0B93FCCF32F
:100BA000869577956795B395D9F73EF4909580959E
:100BB000709561957F4F8F4F9F4F0895E89409C0BE
:100BC00097FB3EF490958095709561957F4F8F4F80
:100BD0009F4F9923A9F0F92F96E9BB279395F69596
:100BE000879577956795B795F111F8CFFAF4BB0F14
:100BF00011F460FF1BC06F5F7F4F8F4F9F4F16C078
:100C0000882311F096E911C0772321F09EE8872F01
:100C1000762F05C0662371F096E8862F70E060E0BD
:100C20002AF09A95660F771F881FDAF7880F969536
:100C3000879597F9089557FD9058440F551F59F01F
:100C40005F3F71F04795880F97FB991F61F09F3FB9
:100C500079F087950895121613061406551FF2CFE2
:100C60004695F1DF08C0161617061806991FF1CF32
:100C700086957105610508940895E894BB27662759
:100C80007727CB0197F908950E94B60608F48FEFF5
:100C900008950E945C060C94F1060E94E30638F069
:100CA0000E94EA0620F0952311F00C94DA060C94C9
:100CB000E00611240C943E060E941B0670F3959FDB
:100CC000C1F3950F50E0551F629FF001729FBB2743
:100CD000F00DB11D639FAA27F00DB11DAA1F649FDF
:100CE0006627B00DA11D661F829F2227B00DA11D92
:100CF000621F739FB00DA11D621F839FA00D611D18
:100D0000221F749F3327A00D611D231F849F600D38
:100D1000211D822F762F6A2F11249F5750409AF061
:100D2000F1F088234AF0EE0FFF1FBB1F661F771FED
:100D3000881F91505040A9F79E3F510580F00C94B8
:100D4000DA060C943E065F3FE4F3983ED4F38695B2
:100D500077956795B795F795E7959F5FC1F7FE2B58
:100D6000880F911D9695879597F90895990F00081A
:100D7000550FAA0BE0E8FEEF16161706E807F9076D
:100D8000C0F012161306E407F50798F0621B730B08
:100D9000840B950B39F40A2661F0232B242B252B89
:100DA00021F408950A2609F4A140A6958FEF811D2C
:100DB000811D089597F99F6780E870E060E00895CD
:100DC0009FEF80EC089500240A9416161706180663
:100DD0000906089500240A9412161306140605063F
:100DE0000895092E0394000C11F4882352F0BB0FD0
:100DF00040F4BF2B11F460FF04C06F5F7F4F8F4F33
:100E00009F4F0895A3E1B0E0E8E0F7E00C947E0A7C
:100E10006C014B012A01FC0117821682838181FF3C
:100E200043C3AE014F5F5F4F3A01F6019381F40176
:100E300093FD859193FF81914F01882309F430C37D
:100E4000853239F493FD859193FF81914F0185326D
:100E500039F4B60190E00E94E80B52012501E5CF7C
:100E600010E0F12C20E02032A0F48B3269F030F455
:100E7000803259F0833269F420612CC08D3239F010
:100E8000803339F4216026C02260246023C02860AA
:100E900021C027FD27C030ED380F3A3078F426FF07
:100EA00006C0FAE01F9F300D1124132F13C04AE033
:100EB000F49E300D1124F32E20620CC08E3221F4EA
:100EC00026FDEEC2206406C08C3611F4206802C0F4
:100ED000883641F4F40193FD859193FF81914F0190
:100EE0008111C1CF9BEB980F933018F42061805E85
:100EF00006C09BE9980F933008F071C12F7E26FF42
:100F000016E02F73322E853619F42064322E08C075
:100F1000863621F4F22FF0683F2E02C011111150D5
:100F200037FE07C01C3350F4EE24E394E10E27E0B3
:100F30000BC0183038F027E017E005C027E04CE37D
:100F4000E42E02C0212FE12C520144E0A40EB11C7A
:100F5000F20160817181828193810E2DA3010E9433
:100F6000D50A2C01098100FF02C003FF07C031FC34
:100F700008C032FE09C030E2232E07C02DE2222E27
:100F800004C09BE2292E01C0212C802F8C7019F007
:100F9000211068C2A8C237FE0FC0E40C04FF04C0D1
:100FA0008A81813309F4EA941E1474F5F8E0FE1581
:100FB00078F588E0E82E2CC036FC2AC0812F90E01E
:100FC000841595059CF02CEF42162FEF520674F015
:100FD000432D4068342E0AC0E2E0F0E0EC0FFD1F24
:100FE000E10FF11D8081803319F411501111F4CFFC
:100FF00037FE0EC0EE24E394E10E812F90E04816F8
:1010000059062CF4141904C0EE24E39401C010E036
:1010100037FE06C01414150434F4C201019605C04D
:1010200085E090E002C081E090E02110019611235C
:1010300031F0212F30E02F5F3F4F820F931F2F2D74
:1010400030E08217930714F4F81A01C0F12C832DB5
:10105000897049F4FF2039F0B60180E290E00E94E7
:10106000E80BFA94F7CF222029F0B601822D90E008
:101070000E94E80B33FC09C0FF2039F0B60180E381
:1010800090E00E94E80BFA94F7CF37FE5AC0942DF7
:10109000852D57FE02C090E080E0292E382E20E0FA
:1010A00030E0A2014E1951095D874C87A201421917
:1010B00053095F874E87612F70E044275527461BF1
:1010C000570B598B488B5FEF2516350649F4B6014F
:1010D0008EE290E02A8B3B8B0E94E80B3B892A89A9
:1010E000421453046CF04C855D854215530544F45D
:1010F000EE85FF85E20FF31FE60DF71D818101C02C
:1011000080E351E0251A31082F5F3F4F4889598904
:10111000241635064CF0B60190E02A8B3B8B0E94DA
:10112000E80B2A893B89CFCF2414350439F49A81FE
:10113000963318F4953311F404FF81E3B60190E07F
:101140004BC08A81813309F00F7EB60190E00E9486
:10115000E80B111105C034FC18C085E690E017C0FB
:10116000B6018EE290E00E94E80B82E0EE24E39468
:10117000E80EF301E80FF11D8081B60190E00E94B6
:10118000E80B11508E2D91F7E6CF85E490E0B60183
:101190000E94E80B57FC05C04114510439F404FFC8
:1011A00005C05194419451088DE201C08BE2B60113
:1011B00090E00E94E80B80E39AE0491651042CF07D
:1011C0008F5F5AE0451A5108F7CFB60190E00E94B0
:1011D000E80BB601C201C0960E94E80B57C18336E6
:1011E00031F0833779F0833509F058C021C05201BE
:1011F000E2E0AE0EB11CF2018081898301E010E0D3
:10120000230114C05201F2E0AF0EB11CF201408084
:10121000518026FF03C0612F70E002C06FEF7FEFA7
:10122000C2012A8B0E94B80B8C012A892F7715C026
:101230005201F2E0AF0EB11CF2014080518026FF56
:1012400003C0612F70E002C06FEF7FEFC2012A8BF5
:101250000E94AD0B8C012A892068322E23FD1AC012
:101260008F2D90E008171907A8F4B60180E290E0EE
:101270000E94E80BFA94F4CFF20137FC859137FE17
:1012800081912F01B60190E00E94E80BF110FA94D1
:10129000015011090115110579F7F8C0843611F0D4
:1012A000893659F5520127FF09C0F4E0AF0EB11C91
:1012B000F20160817181828193810AC0F2E0AF0EF8
:1012C000B11CF20160817181072E000C880B990B13
:1012D0002F76322E97FF09C0909580957095619575
:1012E0007F4F8F4F9F4F2068322E2AE030E0A301BE
:1012F0000E94430CE82EE6183FC0022F853721F4E8
:101300000F7E2AE030E01DC0097F8F3691F018F47F
:10131000883559F0C5C0803719F0883711F0C0C042
:10132000006104FF09C0046007C024FF08C0066014
:1013300006C028E030E005C020E130E002C020E136
:1013400032E0520107FF09C0F4E0AF0EB11CF20118
:10135000608171818281938108C0F2E0AF0EB11C7F
:10136000F2016081718180E090E0A3010E94430C52
:10137000E82EE6180F77302E36FE0BC0332D3E7F59
:10138000E11650F434FE0AC032FC08C0332D3E7E14
:1013900005C00E2D332D03C00E2D01C0012F34FFCB
:1013A0000CC0FE01EE0DF11D8081803311F4397EF9
:1013B00008C032FF05C00E5F04C0832F867809F095
:1013C0000F5F33FD13C030FF06C01E2D0F1518F43C
:1013D0001F0D101B0F2D0F1568F4B60180E290E071
:1013E0003B8B0E94E80B0F5F3B89F5CF0F1510F484
:1013F000F01A01C0F12C34FF12C0B60180E390E076
:101400003B8B0E94E80B3B8932FF17C031FD03C0C4
:1014100088E790E002C088E590E0B6010CC0832F19
:10142000867859F031FF02C08BE201C080E237FDBF
:101430008DE2B60190E00E94E80BE11638F4B601A7
:1014400080E390E00E94E80B1150F7CFEA94F3019B
:10145000EE0DF11D8081B60190E00E94E80BE110D5
:10146000F5CF14C0F4E0FF1558F584E0F81A33FE08
:101470001EC0211026C003FF2AC004E510E0F32D92
:10148000F0713F2EF8018491811124C0FF2009F4EE
:10149000E5CCB60180E290E00E94E80BFA94F6CF2A
:1014A000F6018681978126C08FEF9FEF23C0B6019A
:1014B00080E290E00E94E80BFA94F110F8CFD9CFC7
:1014C000F12CB601822D90E00E94E80BD4CF08E504
:1014D00010E0D5CF31108052B60190E00E94E80BA9
:1014E0000F5F1F4FCFCF23E02F1510F483E0BECF47
:1014F000F12CC1CF6396E2E10C949A0A2F923F92AD
:101500004F925F926F927F928F929F92AF92BF9213
:10151000CF92DF92EF92FF920F931F93CF93DF93BF
:10152000CDB7DEB7CA1BDB0B0FB6F894DEBF0FBE1C
:10153000CDBF09942A88398848885F846E847D8469
:101540008C849B84AA84B984C884DF80EE80FD806B
:101550000C811B81AA81B981CE0FD11D0FB6F894E1
:10156000DEBF0FBECDBFED010895EF920F931F9325
:10157000CF93DF93E80147FD02C034E001C034E1BE
:10158000E42F440FFF0BF7FF03C0F195E195F1093C
:10159000E32E022F2E2FAE010E94A10CCE01DF916F
:1015A000CF911F910F91EF900895283008F027E018
:1015B0003327DA01990F311D87FD9160009661058F
:1015C000710539F432602E5F3D9330E32A95E1F7DF
:1015D00008959F3F30F080387105610509F03C5F48
:1015E0003C5F3D93913008F08068911DDF93CF936D
:1015F0001F930F93FF92EF92192F987F9695E92FE3
:1016000096959695E90FFF27EA54FF4F99273327C0
:10161000EE24FF24A701E70105900894079428F41D
:10162000360FE71EF81E491F511D660F771F881FD2
:10163000991F0694A1F70590079428F4E70EF81E69
:10164000491F561FC11D770F881F991F661F0694DB
:10165000A1F70590079428F4F80E491F561FC71FDD
:10166000D11D880F991F661F771F0694A1F705905B
:10167000079420F4490F561FC71FD81F990F661FE4
:10168000771F881F0694A9F784911095177041F071
:10169000D695C79557954795F794E7941A95C1F74E
:1016A000ECE5F0E068941590159135916591959170
:1016B00005907FE27395E118F10A430B560BC90BB5
:1016C000D009C0F7E10CF11E431F561FC91FD01DE2
:1016D0007EF4703311F48A95E6CFE894015030F02F
:1016E000080F0AF40027021708F4202F2395022F71
:1016F0007A3328F079E37D932A95E9F710C07D933A
:101700002A9589F6069497956795379517951794B6
:10171000E118F10A430B560BC90BD00998F0239539
:101720007E9173957A3308F070E37C932013B8F7B9
:101730007E9170617D9330F0839571E37D9370E3CA
:101740002A95E1F71124EF90FF900F911F91CF910F
:10175000DF91992787FD90950895FC0105906150D0
:1017600070400110D8F7809590958E0F9F1F0895B7
:10177000FC016150704001900110D8F78095909560
:101780008E0F9F1F0895BB274A3031F4992322F40E
:10179000BDE2909581959F4F0C94CF0BBB27FB0129
:1017A0005527AA27880F991FAA1FA41710F0A41B5A
:1017B00083955051B9F7A05DAA3308F0A95DA193B4
:1017C000009779F7B111B1931192CB010C942F0EC0
:1017D0000F931F93CF93DF93FB01238121FD03C060
:1017E0008FEF9FEF28C022FF16C0468157812481CA
:1017F00035814217530744F4A081B1819D012F5FC9
:101800003F4F318320838C93268137812F5F3F4F59
:101810003783268310C0EB01092F182F0084F18530
:10182000E02D0995892BE1F68E819F8101969F839A
:101830008E83812F902FDF91CF911F910F9108956B
:10184000AEE0B0E0E6E2FCE00C948C0A0D891E8963
:1018500086E08C831A8309838FEF9FE79E838D83B5
:10186000AE01475E5F4F6F89788DCE0101960E9471
:1018700002072F813885F801E20FF31F10822E96A0
:10188000E4E00C94A80AFA01AA27283051F120318B
:1018900081F1E8946F936E7F6E5F7F4F8F4F9F4F04
:1018A000AF4FB1E03ED0B4E03CD0670F781F891F46
:1018B0009A1FA11D680F791F8A1F911DA11D6A0F14
:1018C000711D811D911DA11D20D009F468943F91C7
:1018D0002AE0269F11243019305D3193DEF6CF01C6
:1018E0000895462F4770405D4193B3E00FD0C9F78C
:1018F000F6CF462F4F70405D4A3318F0495D31FDF9
:101900004052419302D0A9F7EACFB4E0A69597954B
:10191000879577956795BA95C9F700976105710521
:1019200008959B01AC010A2E06945795479537956B
:101930002795BA95C9F7620F731F841F951FA01DC5
:1019400008954F925F926F927F929F92AF92BF9253
:10195000CF92DF92EF92FF920F931F93CF93DF937B
:10196000CDB7DEB729970FB6F894DEBF0FBECDBF57
:101970006A01122FB02E2BE3201720F0FF24F394DE
:10198000F00E02C0BCE3FB2E0F2D27E0AE014F5F2F
:101990005F4F0E94D50AAC018981982F99709130D0
:1019A00031F0E1FC06C0E0FE06C090E205C09DE219
:1019B00003C09BE201C090E0EE2DE07183FF3CC0CC
:1019C000911102C083E001C084E0811718F4212F37
:1019D000281B01C020E0E1110BC0F601822F30E28C
:1019E000882319F031938150FBCFC20ED11C20E027
:1019F000992329F0D6019C93F60131966F01C60117
:101A00000396E2FE0AC03EE4D6013C9341E41196FF
:101A10004C93119712963C9306C03EE6F601308334
:101A200041E641833283FC01322F40E2332309F443
:101A300042C041933150FACF82FF44C0911102C09D
:101A400083E001C084E0811718F4212F281B01C016
:101A500020E0E1110BC0F601822F30E2882319F05B
:101A600031938150FBCFC20ED11C20E0992329F085
:101A7000D6019C93F60131966F01C6010396E2FEF2
:101A80000BC039E4D6013C933EE411963C93119788
:101A900036E412963C9307C039E6F60130833EE601
:101AA000318336E63283FC01322F40E2332319F0D2
:101AB00041933150FBCFFC01E20FF11D10828EEFFC
:101AC0009FEFB7C0F1E0911101C0F0E06F2F70E01F
:101AD0001416150624F49A012F5F3F4F02C021E02F
:101AE00030E0260F371FBB2029F06B2D70E06F5FB1
:101AF0007F4F02C060E070E0260F371F612F70E05B
:101B0000261737071CF4121B212F01C020E03E2DA1
:101B1000387159F4D601322F60E2332319F06D93F6
:101B20003150FBCFC20ED11C20E0FF2331F0D60193
:101B30009C93B6016F5F7F4F6B01E1110BC0F60103
:101B4000922F30E3992319F031939150FBCFC20EBD
:101B5000D11C20E09F2D940F3A81782F7071A72E11
:101B600084FF03C0313309F49150191624F49930DD
:101B700018F098E001C091E0E42F852F57FF02C0D4
:101B8000E0E080E06E2F782FE0E0F0E0AEE29A2E09
:101B90003A01691A71082A01461A570A0B2D10E0FA
:101BA0001195019511096F3F8FEF780729F4D60140
:101BB0009C92C60101966C014617570784F0661681
:101BC00077066CF47F01E40CF51CA1E0B0E0AC0FEB
:101BD000BD1FEA0EFB1ED7011196BC9002C090E318
:101BE000B92E615071093196C60101967C016017CA
:101BF000710724F0D601BC926C01D5CF641775072C
:101C000041F4363320F4353321F4A11002C081E3CE
:101C1000B82EF601B082F701822F90E2882319F0E6
:101C200091938150FBCFF701E20FF11D108280E00C
:101C300090E029960FB6F894DEBF0FBECDBFDF91BE
:101C4000CF911F910F91FF90EF90DF90CF90BF90B9
:101C5000AF909F907F906F905F904F900895DC01C0
:101C6000FC01672F71917723E1F7329704C07C91D3
:101C70006D9370836291AE17BF07C8F30895F8940F
:021C8000FFCF94
:101C82007468652073706565642069730025660059
:00000001FF
