S01700004578747275646572436F6E74726F6C2E73726563D9
S11300000C94A7000C94DC030C94EB030C94C40034
S11300100C94C4000C94C4000C94C4000C94C4004C
S11300200C94C4000C94C4000C94C4000C94C4003C
S11300300C94C4000C94C4000C94C4000C94C4002C
S11300400C94C4000C94C4000C94C4000C94C4001C
S11300500C94C40000407A10F35A00A0724E1809A0
S11300600010A5D4E80000E87648170000E40B541B
S1130070020000CA9A3B000000E1F50500008096EA
S11300809800000040420F000000A086010000001C
S1130090102700000000E8030000000064000000D6
S11300A000000A00000000000100000000002C769F
S11300B0D888DC674F0823DFC1DFAE59E1B1B796BA
S11300C0E5E3E453C63AE651997696E8E6C2842617
S11300D0EB898C9B62ED407C6FFCEFBC9C9F40F2F3
S11300E0BAA56FA5F490055A2AF75C936B6CF9676F
S11300F06DC11BFCE0E40D47FEF520E6B500D0ED34
S1130100902E0300943577050080841E080000209B
S11301104E0A000000C80C333333330F986E128339
S11301201141EF8D2114893BE65516CFFEE6DB180D
S1130130D1844B381BF77C1D901DA4BBE4242032D2
S113014084725E228100C9F124ECA1E53D271124CB
S11301501FBECFE5D4E0DEBFCDBF10E0A0E6B0E027
S1130160E8E0F9E102C005900D92A037B107D9F794
S113017020E0A0E7B0E001C01D92AD3DB207E1F779
S11301800E9478030C94820C0C940000672B09F0F5
S11301909FC0009711F4D89808958130910511F407
S11301A0D99808958230910511F4DA98089583302E
S11301B0910511F4DB9808958430910511F4DC98CD
S11301C008958530910511F4DD98089586309105E0
S11301D011F4DE9808958730910511F4DF9808959D
S11301E08A30910511F4C09808958B30910511F46B
S11301F0C19808958C30910511F4C29808958D30FA
S1130200910511F4C39808958E30910511F4C498A2
S113021008958F30910511F4C598089580319105A2
S113022011F4C69808958131910511F4C798089581
S11302308431910511F4A89808958531910511F43C
S1130240A99808958631910511F4AA9808958731E3
S1130250910511F4AB9808958831910511F4AC9887
S113026008958931910511F4AD9808958A31910565
S113027011F4AE9808958B31910511F4AF98089557
S11302808E31910511F4909808958F31910511F4F0
S1130290919808958032910511F4929808958132CD
S11302A0910511F4939808958232910511F494986C
S11302B008958332910511F4959808958432910537
S11302C011F496980895859709F09FC0979808951A
S11302D0009711F4D89A08958130910511F4D99AB0
S11302E008958230910511F4DA9A089583309105C6
S11302F011F4DB9A08958430910511F4DC9A089581
S11303008530910511F4DD9A08958630910511F434
S1130310DE9A08958730910511F4DF9A08958A30A2
S1130320910511F4C09A08958B30910511F4C19A86
S113033008958C30910511F4C29A08958D30910579
S113034011F4C39A08958E30910511F4C49A089556
S11303508F30910511F4C59A08958031910511F4F7
S1130360C69A08958131910511F4C79A089584318C
S1130370910511F4A89A08958531910511F4A99A6B
S113038008958631910511F4AA9A0895873191054B
S113039011F4AB9A08958831910511F4AC9A08953B
S11303A08931910511F4AD9A08958A31910511F4BA
S11303B0AE9A08958B31910511F4AF9A08958E3158
S11303C0910511F4909A08958F31910511F4919A41
S11303D008958032910511F4929A0895813291051D
S11303E011F4939A08958232910511F4949A089520
S11303F08332910511F4959A08958432910511F48C
S1130400969A0895859709F4979A0895CF93C82FDB
S113041080FF07C061E070E08AE090E00E94C600BF
S113042006C060E070E08AE090E00E94C600C1FF70
S113043007C061E070E08BE090E00E94C60006C057
S113044060E070E08BE090E00E94C600C2FF07C04D
S113045061E070E08CE090E00E94C60006C060E0BD
S113046070E08CE090E00E94C600C3FF07C061E02A
S113047070E08DE090E00E94C60006C060E070E08D
S11304808DE090E00E94C600CF910895CF93C82FCD
S113049060E070E08EE090E00E94C6008C2F0E9425
S11304A0060261E070E08FE090E00E94C6008FE9F0
S11304B09FE00197F1F700C0000060E070E08FE07A
S11304C090E00E94C6008FE99FE00197F1F700C019
S11304D00000CF91089580E00E94460281E00E94CE
S11304E046020895CF93C62F813059F480E8860FD1
S11304F082958F700E9446028C2F8F700E94460254
S11305000CC0823051F480EC860F82958F700E946B
S113051046028C2F8F700E944602CF91089580E08E
S11305200E9406022FEF89EF90E021508040904016
S1130530E1F700C0000083E00E9446028FE19EE4E0
S11305400197F1F700C0000083E00E9446028FED9E
S11305509BEA0197F1F700C0000083E00E94460285
S113056082E00E94460282E00E94460288E00E94E5
S1130570460280E00E9446028CE00E94460280E02F
S11305800E94460286E00E9446020895CF93C82F37
S113059061E070E08EE090E00E94C6008C2F8295AE
S11305A08F700E94060261E070E08FE090E00E948C
S11305B0C6008FE99FE00197F1F700C0000060E0FA
S11305C070E08FE090E00E94C6008FE99FE0019701
S11305D0F1F700C000008C2F8F700E94060261E0CA
S11305E070E08FE090E00E94C6008FE99FE00197E1
S11305F0F1F700C0000060E070E08FE090E00E943E
S1130600C6008FE99FE00197F1F700C00000CF9189
S11306100895CF93DF93EC018881882331F02196EC
S11306200E94C60289918111FBCFDF91CF91089579
S113063086B1876886B93E9A369A3699FECF64B1F8
S113064075B180E090E00E94F40528E638EE4FE9A9
S11306505BE30E945A066093720070937300809368
S11306607400909375006091720070917300809192
S11306707400909175000E94BE05CB01089586B167
S1130680876886B987B1816487B9369A3699FECF6F
S113069064B175B180E090E00E94F40528E638EE7C
S11306A04FE95BE30E945A060E94BE057093DB008B
S11306B06093DA008091DA009091DB00089585B7A9
S11306C0866085BF8BB7806C8BBF86B1876886B91F
S11306D03D9A85B58F6685BD789487B38F6387BB54
S11306E08AB38ABB84B38F6184BB0E948F0208954E
S11306F00E945F030F2EF6E7EF2EF0E0FF2EF02DA1
S11307000E943F03EC019091DC00992349F10E947F
S113071018034B972CF10E946B02BE0180E190E01C
S11307200E9496054AE0B701CE010E940F0761E0DE
S113073081E00E94720280E690E00E94090361E079
S113074082E00E947202C7010E9409032FEF89E62A
S113075098E1215080409040E1F700C00000D0CFE4
S11307600E941803EC010E946B02BE01DD0F880B8E
S1130770990B0E94F6050DE610E022E041E00E948C
S1130780EF069F938F93FF92EF920E94340761E0EC
S113079081E00E947202C7010E9409032FEF89E6DB
S11307A098E1215080409040E1F700C000000F9094
S11307B00F900F900F90A4CF1F920F920FB60F922D
S11307C011248F9381E08093DC008F910F900FBEF2
S11307D00F901F9018951F920F920FB60F9211242D
S11307E01092DC000F900FBE0F901F901895672B8E
S11307F009F09FC0009711F4D898089581309105AD
S113080011F4D99808958230910511F4DA98089575
S11308108330910511F4DB9808958430910511F427
S1130820DC9808958530910511F4DD98089586309B
S1130830910511F4DE9808958730910511F4DF983D
S113084008958A30910511F4C09808958B3091056C
S113085011F4C19808958C30910511F4C29808954B
S11308608D30910511F4C39808958E30910511F4DB
S1130870C49808958F30910511F4C5980895803176
S1130880910511F4C69808958131910511F4C79822
S113089008958431910511F4A8980895853191053E
S11308A011F4A99808958631910511F4AA98089530
S11308B08731910511F4AB9808958831910511F4AD
S11308C0AC9808958931910511F4AD9808958A3151
S11308D0910511F4AE9808958B31910511F4AF98F8
S11308E008958E31910511F4909808958F319105F2
S11308F011F4919808958032910511F49298089515
S11309008132910511F4939808958232910511F47E
S1130910949808958332910511F49598089584323A
S1130920910511F496980895859709F09FC09798BA
S11309300895009711F4D89A08958130910511F41F
S1130940D99A08958230910511F4DA9A0895833082
S1130950910511F4DB9A08958430910511F4DC9A21
S113096008958530910511F4DD9A08958630910536
S113097011F4DE9A08958730910511F4DF9A0895F1
S11309808A30910511F4C09A08958B30910511F4C1
S1130990C19A08958C30910511F4C29A08958D304E
S11309A0910511F4C39A08958E30910511F4C49AF7
S11309B008958F30910511F4C59A089580319105F9
S11309C011F4C69A08958131910511F4C79A0895D6
S11309D08431910511F4A89A08958531910511F493
S11309E0A99A08958631910511F4AA9A0895873138
S11309F0910511F4AB9A08958831910511F4AC9ADC
S1130A0008958931910511F4AD9A08958A319105BB
S1130A1011F4AE9A08958B31910511F4AF9A0895AB
S1130A208E31910511F4909A08958F31910511F446
S1130A30919A08958032910511F4929A0895813221
S1130A40910511F4939A08958232910511F4949AC0
S1130A5008958332910511F4959A0895843291058D
S1130A6011F4969A0895859709F4979A089560E089
S1130A7070E08AE090E00E94F70360E070E08BE0B1
S1130A8090E00E94F70360E070E08CE090E00E9448
S1130A90F703089561E070E08AE090E00E94F703B4
S1130AA060E070E08BE090E00E94F70360E070E0AB
S1130AB08CE090E00E94F703089560E070E08AE023
S1130AC090E00E94F70361E070E08BE090E00E9408
S1130AD0F70360E070E08CE090E00E94F703089573
S1130AE061E070E08AE090E00E94F70361E070E06A
S1130AF08BE090E00E94F70360E070E08CE090E00F
S1130B000E94F703089561E070E08AE090E00E949B
S1130B10F70361E070E08BE090E00E94F70361E08E
S1130B2070E08CE090E00E94F7030895CF93C62F05
S1130B308630910599F034F48130910549F002979B
S1130B4051F014C08830910561F0409769F00EC0EF
S1130B500E9437050BC00E944A0508C00E945D052B
S1130B6005C00E94700502C00E9483056C2F70E0CE
S1130B707093710060937000CF9108950E94C50531
S1130B806894B1110C94540608950E94390688F0B3
S1130B909F5798F0B92F9927B751B0F0E1F0660F3D
S1130BA0771F881F991F1AF0BA95C9F714C0B1307E
S1130BB091F00E945306B1E008950C945306672FF8
S1130BC0782F8827B85F39F0B93FCCF386957795AD
S1130BD06795B395D9F73EF4909580957095619596
S1130BE07F4F8F4F9F4F0895E89409C097FB3EF4C1
S1130BF090958095709561957F4F8F4F9F4F992366
S1130C00A9F0F92F96E9BB279395F69587957795E3
S1130C106795B795F111F8CFFAF4BB0F11F460FFA3
S1130C201BC06F5F7F4F8F4F9F4F16C0882311F0FB
S1130C3096E911C0772321F09EE8872F762F05C00F
S1130C40662371F096E8862F70E060E02AF09A95AA
S1130C50660F771F881FDAF7880F9695879597F99F
S1130C60089557FD9058440F551F59F05F3F71F098
S1130C704795880F97FB991F61F09F3F79F08795FF
S1130C800895121613061406551FF2CF4695F1DF88
S1130C9008C0161617061806991FF1CF8695710518
S1130CA0610508940895E894BB2766277727CB014C
S1130CB097F908950E946D060C94DE060E94D006F2
S1130CC038F00E94D70620F0952311F00C94C70643
S1130CD00C94CD0611240C9454060E94310670F332
S1130CE0959FC1F3950F50E0551F629FF001729FCD
S1130CF0BB27F00DB11D639FAA27F00DB11DAA1FDC
S1130D00649F6627B00DA11D661F829F2227B00D28
S1130D10A11D621F739FB00DA11D621F839FA00DB3
S1130D20611D221F749F3327A00D611D231F849F03
S1130D30600D211D822F762F6A2F11249F5750405A
S1130D409AF0F1F088234AF0EE0FFF1FBB1F661FD5
S1130D50771F881F91505040A9F79E3F510580F09E
S1130D600C94C7060C9454065F3FE4F3983ED4F306
S1130D70869577956795B795F795E7959F5FC1F742
S1130D80FE2B880F911D9695879597F9089597F9ED
S1130D909F6780E870E060E008959FEF80EC08951D
S1130DA000240A9416161706180609060895002446
S1130DB00A9412161306140605060895092E0394C0
S1130DC0000C11F4882352F0BB0F40F4BF2B11F434
S1130DD060FF04C06F5F7F4F8F4F9F4F0895EF9266
S1130DE00F931F93CF93DF93E80147FD02C034E0D4
S1130DF001C034E1E42F440FFF0BF7FF03C0F1956A
S1130E00E195F109E32E022F2E2FAE010E9429094C
S1130E10CE01DF91CF911F910F91EF900895BB27E1
S1130E204A3031F4992322F4BDE2909581959F4F85
S1130E300C941B07BB27FB015527AA27880F991F72
S1130E40AA1FA41710F0A41B83955051B9F7A05DF5
S1130E50AA3308F0A95DA193009779F7B111B19372
S1130E601192CB010C94A50BAEE0B0E0EAE3F7E0FD
S1130E700C94590C0D891E8986E08C831A8309838E
S1130E808FEF9FE79E838D83AE01475E5F4F6F892F
S1130E90788DCE0101960E9457072F813885F8017D
S1130EA0E20FF31F10822E96E4E00C94750CACE074
S1130EB0B0E0EDE5F7E00C944B0C7C016B018A018A
S1130EC0FC0117821682838181FFBDC1CE01019688
S1130ED04C01F7019381F60193FD859193FF819174
S1130EE06F01882309F4ABC1853239F493FD8591F0
S1130EF093FF81916F01853229F4B70190E00E943C
S1130F00B50BE7CF512C312C20E02032A0F48B32EA
S1130F1069F030F4803259F0833269F420612CC0D6
S1130F208D3239F0803339F4216026C02260246088
S1130F3023C0286021C027FD27C030ED380F3A3088
S1130F4078F426FF06C0FAE05F9E300D1124532E7C
S1130F5013C08AE0389E300D1124332E20620CC059
S1130F608E3221F426FD6BC1206406C08C3611F448
S1130F70206802C0883641F4F60193FD859193FF01
S1130F8081916F018111C1CF982F9F7D955493302A
S1130F9028F40C5F1F4FFFE3F9830DC0833631F053
S1130FA0833771F0833509F05BC022C0F80180817A
S1130FB089830E5F1F4F44244394512C540115C060
S1130FC03801F2E06F0E711CF801A080B18026FF99
S1130FD003C0652D70E002C06FEF7FEFC5012C8761
S1130FE00E949A0B2C0183012C852F77222E17C087
S1130FF03801F2E06F0E711CF801A080B18026FF69
S113100003C0652D70E002C06FEF7FEFC5012C8730
S11310100E948F0B2C012C852068222E830123FC37
S11310201BC0832D90E048165906B0F4B70180E246
S113103090E00E94B50B3A94F4CFF50127FC85911A
S113104027FE81915F01B70190E00E94B50B31103A
S11310503A94F1E04F1A51084114510471F7E5C074
S1131060843611F0893639F5F80127FF07C060810D
S11310707181828193810C5F1F4F08C060817181EF
S1131080072E000C880B990B0E5F1F4F2F76722EC4
S113109097FF09C090958095709561957F4F8F4F0C
S11310A09F4F2068722E2AE030E0A4010E94ED0BCD
S11310B0A82EA81844C0853729F42F7EB22E2AE022
S11310C030E025C0F22FF97FBF2E8F36C1F018F41F
S11310D0883579F0B4C0803719F0883721F0AFC073
S11310E02F2F2061B22EB4FE0DC08B2D8460B82E3C
S11310F009C024FF0AC09F2F9660B92E06C028E0BD
S113110030E005C020E130E002C020E132E0F80127
S1131110B7FE07C060817181828193810C5F1F4F8C
S113112006C06081718180E090E00E5F1F4FA401D2
S11311300E94ED0BA82EA818FB2DFF777F2E76FEBC
S11311400BC0372D3E7FA51450F474FE0AC072FC08
S113115008C0372D3E7E05C0BA2C372D03C0BA2CEB
S113116001C0B52C34FF0DC0FE01EA0DF11D8081D4
S1131170803311F4397E09C032FF06C0B394B394AE
S113118004C0832F867809F0B39433FD13C030FF75
S113119006C05A2CB31418F4530C5B18B32CB314B4
S11311A068F4B70180E290E03C870E94B50BB394E9
S11311B03C85F5CFB31410F43B1801C0312C34FF37
S11311C012C0B70180E390E03C870E94B50B3C85D8
S11311D032FF17C031FD03C088E790E002C088E504
S11311E090E0B7010CC0832F867859F031FF02C01C
S11311F08BE201C080E237FD8DE2B70190E00E94EE
S1131200B50BA51438F4B70180E390E00E94B50B48
S11312105A94F7CFAA94F401EA0DF11D8081B70125
S113122090E00E94B50BA110F5CF332009F451CE04
S1131230B70180E290E00E94B50B3A94F6CFF70133
S11312408681978102C08FEF9FEF2C96E2E10C9488
S1131250670C4F925F926F927F929F92AF92BF9270
S1131260CF92DF92EF92FF920F931F93CF93DF936E
S1131270CDB7DEB729970FB6F894DEBF0FBECDBF4A
S11312806A01122FB02E2BE3201720F0FF24F394D1
S1131290F00E02C0BCE3FB2E0F2D27E0AE014F5F22
S11312A05F4F0E94B70AAC018981982F99709130E1
S11312B031F0E1FC06C0E0FE06C090E205C09DE20C
S11312C003C09BE201C090E0EE2DE07183FF3CC0BF
S11312D0911102C083E001C084E0811718F4212F2A
S11312E0281B01C020E0E1110BC0F601822F30E27F
S11312F0882319F031938150FBCFC20ED11C20E01A
S1131300992329F0D6019C93F60131966F01C60109
S11313100396E2FE0AC03EE4D6013C9341E41196F2
S11313204C93119712963C9306C03EE6F601308327
S113133041E641833283FC01322F40E2332309F436
S113134042C041933150FACF82FF44C0911102C090
S113135083E001C084E0811718F4212F281B01C009
S113136020E0E1110BC0F601822F30E2882319F04E
S113137031938150FBCFC20ED11C20E0992329F078
S1131380D6019C93F60131966F01C6010396E2FEE5
S11313900BC039E4D6013C933EE411963C9311977B
S11313A036E412963C9307C039E6F60130833EE6F4
S11313B0318336E63283FC01322F40E2332319F0C5
S11313C041933150FBCFFC01E20FF11D10828EEFEF
S11313D09FEFB7C0F1E0911101C0F0E06F2F70E012
S11313E01416150624F49A012F5F3F4F02C021E022
S11313F030E0260F371FBB2029F06B2D70E06F5FA4
S11314007F4F02C060E070E0260F371F612F70E04D
S1131410261737071CF4121B212F01C020E03E2D94
S1131420387159F4D601322F60E2332319F06D93E9
S11314303150FBCFC20ED11C20E0FF2331F0D60186
S11314409C93B6016F5F7F4F6B01E1110BC0F601F6
S1131450922F30E3992319F031939150FBCFC20EB0
S1131460D11C20E09F2D940F3A81782F7071A72E04
S113147084FF03C0313309F49150191624F49930D0
S113148018F098E001C091E0E42F852F57FF02C0C7
S1131490E0E080E06E2F782FE0E0F0E0AEE29A2EFC
S11314A03A01691A71082A01461A570A0B2D10E0ED
S11314B01195019511096F3F8FEF780729F4D60133
S11314C09C92C60101966C014617570784F0661674
S11314D077066CF47F01E40CF51CA1E0B0E0AC0FDE
S11314E0BD1FEA0EFB1ED7011196BC9002C090E30B
S11314F0B92E615071093196C60101967C016017BD
S1131500710724F0D601BC926C01D5CF641775071E
S113151041F4363320F4353321F4A11002C081E3C1
S1131520B82EF601B082F701822F90E2882319F0D9
S113153091938150FBCFF701E20FF11D108280E0FF
S113154090E029960FB6F894DEBF0FBECDBFDF91B1
S1131550CF911F910F91FF90EF90DF90CF90BF90AC
S1131560AF909F907F906F905F904F900895283038
S113157008F027E03327DA01990F311D87FD9160C8
S113158000966105710539F432602E5F3D9330E3B6
S11315902A95E1F708959F3F30F080387105610581
S11315A009F03C5F3C5F3D93913008F08068911DE9
S11315B0DF93CF931F930F93FF92EF92192F987F8E
S11315C09695E92F96959695E90FFF27E255FF4FDB
S11315D099273327EE24FF24A701E70105900894F7
S11315E0079428F4360FE71EF81E491F511D660F95
S11315F0771F881F991F0694A1F70590079428F474
S1131600E70EF81E491F561FC11D770F881F991F2B
S1131610661F0694A1F70590079428F4F80E491F55
S1131620561FC71FD11D880F991F661F771F069469
S1131630A1F70590079420F4490F561FC71FD81F20
S1131640990F661F771F881F0694A9F78491109538
S1131650177041F0D695C79557954795F794E79439
S11316601A95C1F7E4E5F0E0689415901591359169
S11316706591959105907FE27395E118F10A430B0A
S1131680560BC90BD009C0F7E10CF11E431F561FBE
S1131690C91FD01D7EF4703311F48A95E6CFE89407
S11316A0015030F0080F0AF40027021708F4202F25
S11316B02395022F7A3328F079E37D932A95E9F76D
S11316C010C07D932A9589F606949795679537956A
S11316D017951794E118F10A430B560BC90BD0095F
S11316E098F023957E9173957A3308F070E37C9398
S11316F02013B8F77E9170617D9330F0839571E388
S11317007D9370E32A95E1F71124EF90FF900F91F8
S11317101F91CF91DF91992787FD90950895FC0142
S11317200590615070400110D8F7809590958E0F08
S11317309F1F0895FC016150704001900110D8F77B
S1131740809590958E0F9F1F0895DC01FC01672FF3
S113175071917723E1F7329704C07C916D93708384
S11317606291AE17BF07C8F308950F931F93CF93E9
S1131770DF93FB01238121FD03C08FEF9FEF28C07E
S113178022FF16C0468157812481358142175307B1
S113179044F4A081B1819D012F5F3F4F31832083A9
S11317A08C93268137812F5F3F4F3783268310C068
S11317B0EB01092F182F0084F185E02D0995892B61
S11317C0E1F68E819F8101969F838E83812F902FD6
S11317D0DF91CF911F910F910895FA01AA27283024
S11317E051F1203181F1E8946F936E7F6E5F7F4FEA
S11317F08F4F9F4FAF4FB1E03ED0B4E03CD0670F66
S1131800781F891F9A1FA11D680F791F8A1F911DB8
S1131810A11D6A0F711D811D911DA11D20D009F408
S113182068943F912AE0269F11243019305D31934A
S1131830DEF6CF010895462F4770405D4193B3E033
S11318400FD0C9F7F6CF462F4F70405D4A3318F0DA
S1131850495D31FD4052419302D0A9F7EACFB4E08B
S1131860A6959795879577956795BA95C9F7009743
S11318706105710508959B01AC010A2E06945795E4
S1131880479537952795BA95C9F7620F731F841F3B
S1131890951FA01D08952F923F924F925F926F92D1
S11318A07F928F929F92AF92BF92CF92DF92EF92EC
S11318B0FF920F931F93CF93DF93CDB7DEB7CA1B6D
S11318C0DB0B0FB6F894DEBF0FBECDBF09942A8898
S11318D0398848885F846E847D848C849B84AA8440
S11318E0B984C884DF80EE80FD800C811B81AA81CD
S11318F0B981CE0FD11D0FB6F894DEBF0FBECDBF98
S10B1900ED010895F894FFCFF6
S113190874686520737065656420697300256600D2
S9030000FC
