:100000000C942A000C943C000C943C000C943C0092
:100010000C943C000C943C000C943C000C943C0070
:100020000C943C000C943C000C943C000C943C0060
:100030000C943C000C943C000C943C000C943C0050
:100040000C943C000C943C000C943C000C943C0040
:100050000C943C0011241FBECFE5D4E0DEBFCDBF21
:1000600020E0A0E6B0E001C01D92A136B207E1F7A2
:100070000E9491000C94A0000C940000FC0180816F
:10008000089541110DC0E82FF0E0228181E090E059
:1000900002C0880F991F6A95E2F7822B8283089528
:1000A000E82FF0E0228181E090E002C0880F991FE4
:1000B0006A95E2F7809582238283089541E062E0A9
:1000C00083E30E944100000040E062E083E30E947D
:1000D000410000000895CF93C82F41E060E083E322
:1000E0000E94410040E061E083E30E94410082E31E
:1000F00090E00E943E008F709C2F907F892B809310
:1001000060000E945E0020E1C29FC0011124909116
:1001100060009F70892B809360000E945E00CF91E9
:1001200008950E945E008EE60E946B002FEF89E624
:1001300098E1215080409040E1F700C00000FFCFDF
:04014000F894FFCF61
:00000001FF
